{"contracts/BetiPredictMarket.sol":{"BetiPredictMarket":{"abi":[{"inputs":[{"internalType":"address","name":"_collateralToken","type":"address"},{"internalType":"uint8","name":"_decimals","type":"uint8"}],"stateMutability":"nonpayable","type":"constructor"},{"inputs":[],"name":"EnforcedPause","type":"error"},{"inputs":[],"name":"ExpectedPause","type":"error"},{"inputs":[{"internalType":"address","name":"owner","type":"address"}],"name":"OwnableInvalidOwner","type":"error"},{"inputs":[{"internalType":"address","name":"account","type":"address"}],"name":"OwnableUnauthorizedAccount","type":"error"},{"inputs":[],"name":"ReentrancyGuardReentrantCall","type":"error"},{"inputs":[{"internalType":"address","name":"token","type":"address"}],"name":"SafeERC20FailedOperation","type":"error"},{"anonymous":false,"inputs":[{"indexed":true,"internalType":"address","name":"to","type":"address"},{"indexed":false,"internalType":"uint256","name":"amount","type":"uint256"}],"name":"FeesWithdrawn","type":"event"},{"anonymous":false,"inputs":[{"indexed":true,"internalType":"uint256","name":"marketId","type":"uint256"},{"indexed":true,"internalType":"address","name":"canceller","type":"address"}],"name":"MarketCancelled","type":"event"},{"anonymous":false,"inputs":[{"indexed":true,"internalType":"uint256","name":"marketId","type":"uint256"},{"indexed":false,"internalType":"string","name":"question","type":"string"},{"indexed":false,"internalType":"uint256","name":"resolveTime","type":"uint256"},{"indexed":true,"internalType":"address","name":"creator","type":"address"},{"indexed":false,"internalType":"uint256","name":"initialLiquidity","type":"uint256"}],"name":"MarketCreated","type":"event"},{"anonymous":false,"inputs":[{"indexed":true,"internalType":"uint256","name":"marketId","type":"uint256"},{"indexed":false,"internalType":"enum BetiPredictMarket.Outcome","name":"resolution","type":"uint8"},{"indexed":true,"internalType":"address","name":"resolver","type":"address"}],"name":"MarketResolved","type":"event"},{"anonymous":false,"inputs":[{"indexed":true,"internalType":"address","name":"previousOwner","type":"address"},{"indexed":true,"internalType":"address","name":"newOwner","type":"address"}],"name":"OwnershipTransferred","type":"event"},{"anonymous":false,"inputs":[{"indexed":false,"internalType":"address","name":"account","type":"address"}],"name":"Paused","type":"event"},{"anonymous":false,"inputs":[{"indexed":true,"internalType":"uint256","name":"marketId","type":"uint256"},{"indexed":true,"internalType":"address","name":"user","type":"address"},{"indexed":false,"internalType":"uint256","name":"refund","type":"uint256"}],"name":"RefundClaimed","type":"event"},{"anonymous":false,"inputs":[{"indexed":true,"internalType":"address","name":"resolver","type":"address"},{"indexed":false,"internalType":"bool","name":"authorized","type":"bool"}],"name":"ResolverUpdated","type":"event"},{"anonymous":false,"inputs":[{"indexed":true,"internalType":"uint256","name":"marketId","type":"uint256"},{"indexed":true,"internalType":"address","name":"buyer","type":"address"},{"indexed":false,"internalType":"enum BetiPredictMarket.Outcome","name":"outcome","type":"uint8"},{"indexed":false,"internalType":"uint256","name":"collateralIn","type":"uint256"},{"indexed":false,"internalType":"uint256","name":"sharesOut","type":"uint256"},{"indexed":false,"internalType":"uint256","name":"fee","type":"uint256"}],"name":"SharesPurchased","type":"event"},{"anonymous":false,"inputs":[{"indexed":true,"internalType":"uint256","name":"marketId","type":"uint256"},{"indexed":true,"internalType":"address","name":"seller","type":"address"},{"indexed":false,"internalType":"enum BetiPredictMarket.Outcome","name":"outcome","type":"uint8"},{"indexed":false,"internalType":"uint256","name":"sharesIn","type":"uint256"},{"indexed":false,"internalType":"uint256","name":"collateralOut","type":"uint256"},{"indexed":false,"internalType":"uint256","name":"fee","type":"uint256"}],"name":"SharesSold","type":"event"},{"anonymous":false,"inputs":[{"indexed":false,"internalType":"uint256","name":"oldFee","type":"uint256"},{"indexed":false,"internalType":"uint256","name":"newFee","type":"uint256"}],"name":"TradingFeeUpdated","type":"event"},{"anonymous":false,"inputs":[{"indexed":false,"internalType":"address","name":"account","type":"address"}],"name":"Unpaused","type":"event"},{"anonymous":false,"inputs":[{"indexed":true,"internalType":"uint256","name":"marketId","type":"uint256"},{"indexed":true,"internalType":"address","name":"user","type":"address"},{"indexed":false,"internalType":"uint256","name":"payout","type":"uint256"}],"name":"WinningsClaimed","type":"event"},{"inputs":[],"name":"FEE_DENOMINATOR","outputs":[{"internalType":"uint256","name":"","type":"uint256"}],"stateMutability":"view","type":"function"},{"inputs":[],"name":"MIN_LIQUIDITY","outputs":[{"internalType":"uint256","name":"","type":"uint256"}],"stateMutability":"view","type":"function"},{"inputs":[],"name":"SCALE","outputs":[{"internalType":"uint256","name":"","type":"uint256"}],"stateMutability":"view","type":"function"},{"inputs":[{"internalType":"uint256","name":"_marketId","type":"uint256"},{"internalType":"uint256","name":"_amount","type":"uint256"},{"internalType":"uint256","name":"_minShares","type":"uint256"}],"name":"buyNo","outputs":[{"internalType":"uint256","name":"sharesOut","type":"uint256"}],"stateMutability":"nonpayable","type":"function"},{"inputs":[{"internalType":"uint256","name":"_marketId","type":"uint256"},{"internalType":"uint256","name":"_amount","type":"uint256"},{"internalType":"uint256","name":"_minShares","type":"uint256"}],"name":"buyYes","outputs":[{"internalType":"uint256","name":"sharesOut","type":"uint256"}],"stateMutability":"nonpayable","type":"function"},{"inputs":[{"internalType":"uint256","name":"_marketId","type":"uint256"}],"name":"cancelMarket","outputs":[],"stateMutability":"nonpayable","type":"function"},{"inputs":[{"internalType":"uint256","name":"_marketId","type":"uint256"}],"name":"claimRefund","outputs":[],"stateMutability":"nonpayable","type":"function"},{"inputs":[{"internalType":"uint256","name":"_marketId","type":"uint256"}],"name":"claimWinnings","outputs":[],"stateMutability":"nonpayable","type":"function"},{"inputs":[{"internalType":"uint256","name":"","type":"uint256"},{"internalType":"address","name":"","type":"address"}],"name":"claimed","outputs":[{"internalType":"bool","name":"","type":"bool"}],"stateMutability":"view","type":"function"},{"inputs":[],"name":"collateralDecimals","outputs":[{"internalType":"uint8","name":"","type":"uint8"}],"stateMutability":"view","type":"function"},{"inputs":[],"name":"collateralToken","outputs":[{"internalType":"contract IERC20","name":"","type":"address"}],"stateMutability":"view","type":"function"},{"inputs":[{"internalType":"string","name":"_question","type":"string"},{"internalType":"uint256","name":"_resolveTime","type":"uint256"},{"internalType":"uint256","name":"_initialLiquidity","type":"uint256"},{"internalType":"address","name":"_resolver","type":"address"}],"name":"createMarket","outputs":[{"internalType":"uint256","name":"","type":"uint256"}],"stateMutability":"nonpayable","type":"function"},{"inputs":[],"name":"creationFee","outputs":[{"internalType":"uint256","name":"","type":"uint256"}],"stateMutability":"view","type":"function"},{"inputs":[{"internalType":"uint256","name":"_marketId","type":"uint256"},{"internalType":"enum BetiPredictMarket.Outcome","name":"_outcome","type":"uint8"},{"internalType":"uint256","name":"_amount","type":"uint256"}],"name":"estimateBuy","outputs":[{"internalType":"uint256","name":"sharesOut","type":"uint256"},{"internalType":"uint256","name":"fee","type":"uint256"}],"stateMutability":"view","type":"function"},{"inputs":[{"internalType":"uint256","name":"_marketId","type":"uint256"},{"internalType":"enum BetiPredictMarket.Outcome","name":"_outcome","type":"uint8"},{"internalType":"uint256","name":"_shares","type":"uint256"}],"name":"estimateSell","outputs":[{"internalType":"uint256","name":"collateralOut","type":"uint256"},{"internalType":"uint256","name":"fee","type":"uint256"}],"stateMutability":"view","type":"function"},{"inputs":[{"internalType":"uint256","name":"_marketId","type":"uint256"}],"name":"getMarket","outputs":[{"internalType":"uint256","name":"id","type":"uint256"},{"internalType":"string","name":"question","type":"string"},{"internalType":"uint256","name":"resolveTime","type":"uint256"},{"internalType":"uint256","name":"yesPool","type":"uint256"},{"internalType":"uint256","name":"noPool","type":"uint256"},{"internalType":"uint256","name":"totalVolume","type":"uint256"},{"internalType":"enum BetiPredictMarket.MarketStatus","name":"status","type":"uint8"},{"internalType":"enum BetiPredictMarket.Outcome","name":"resolution","type":"uint8"},{"internalType":"address","name":"creator","type":"address"},{"internalType":"uint256","name":"createdAt","type":"uint256"}],"stateMutability":"view","type":"function"},{"inputs":[{"internalType":"uint256","name":"_marketId","type":"uint256"}],"name":"getNoPrice","outputs":[{"internalType":"uint256","name":"","type":"uint256"}],"stateMutability":"view","type":"function"},{"inputs":[{"internalType":"uint256","name":"_marketId","type":"uint256"},{"internalType":"address","name":"_user","type":"address"}],"name":"getPosition","outputs":[{"internalType":"uint256","name":"yesAmount","type":"uint256"},{"internalType":"uint256","name":"noAmount","type":"uint256"},{"internalType":"bool","name":"hasClaimed","type":"bool"}],"stateMutability":"view","type":"function"},{"inputs":[{"internalType":"uint256","name":"_marketId","type":"uint256"}],"name":"getYesPrice","outputs":[{"internalType":"uint256","name":"","type":"uint256"}],"stateMutability":"view","type":"function"},{"inputs":[],"name":"marketCount","outputs":[{"internalType":"uint256","name":"","type":"uint256"}],"stateMutability":"view","type":"function"},{"inputs":[{"internalType":"uint256","name":"","type":"uint256"}],"name":"markets","outputs":[{"internalType":"uint256","name":"id","type":"uint256"},{"internalType":"string","name":"question","type":"string"},{"internalType":"uint256","name":"resolveTime","type":"uint256"},{"internalType":"uint256","name":"yesPool","type":"uint256"},{"internalType":"uint256","name":"noPool","type":"uint256"},{"internalType":"uint256","name":"totalVolume","type":"uint256"},{"internalType":"enum BetiPredictMarket.MarketStatus","name":"status","type":"uint8"},{"internalType":"enum BetiPredictMarket.Outcome","name":"resolution","type":"uint8"},{"internalType":"address","name":"creator","type":"address"},{"internalType":"address","name":"resolver","type":"address"},{"internalType":"uint256","name":"createdAt","type":"uint256"}],"stateMutability":"view","type":"function"},{"inputs":[{"internalType":"uint256","name":"","type":"uint256"},{"internalType":"address","name":"","type":"address"}],"name":"noShares","outputs":[{"internalType":"uint256","name":"","type":"uint256"}],"stateMutability":"view","type":"function"},{"inputs":[],"name":"owner","outputs":[{"internalType":"address","name":"","type":"address"}],"stateMutability":"view","type":"function"},{"inputs":[],"name":"pause","outputs":[],"stateMutability":"nonpayable","type":"function"},{"inputs":[],"name":"paused","outputs":[{"internalType":"bool","name":"","type":"bool"}],"stateMutability":"view","type":"function"},{"inputs":[],"name":"platformBalance","outputs":[{"internalType":"uint256","name":"","type":"uint256"}],"stateMutability":"view","type":"function"},{"inputs":[],"name":"renounceOwnership","outputs":[],"stateMutability":"nonpayable","type":"function"},{"inputs":[{"internalType":"uint256","name":"_marketId","type":"uint256"},{"internalType":"enum BetiPredictMarket.Outcome","name":"_resolution","type":"uint8"}],"name":"resolveMarket","outputs":[],"stateMutability":"nonpayable","type":"function"},{"inputs":[{"internalType":"address","name":"","type":"address"}],"name":"resolvers","outputs":[{"internalType":"bool","name":"","type":"bool"}],"stateMutability":"view","type":"function"},{"inputs":[{"internalType":"uint256","name":"_marketId","type":"uint256"},{"internalType":"uint256","name":"_shares","type":"uint256"},{"internalType":"uint256","name":"_minCollateral","type":"uint256"}],"name":"sellNo","outputs":[{"internalType":"uint256","name":"collateralOut","type":"uint256"}],"stateMutability":"nonpayable","type":"function"},{"inputs":[{"internalType":"uint256","name":"_marketId","type":"uint256"},{"internalType":"uint256","name":"_shares","type":"uint256"},{"internalType":"uint256","name":"_minCollateral","type":"uint256"}],"name":"sellYes","outputs":[{"internalType":"uint256","name":"collateralOut","type":"uint256"}],"stateMutability":"nonpayable","type":"function"},{"inputs":[{"internalType":"uint256","name":"_fee","type":"uint256"}],"name":"setCreationFee","outputs":[],"stateMutability":"nonpayable","type":"function"},{"inputs":[{"internalType":"address","name":"_resolver","type":"address"},{"internalType":"bool","name":"_authorized","type":"bool"}],"name":"setResolver","outputs":[],"stateMutability":"nonpayable","type":"function"},{"inputs":[{"internalType":"uint256","name":"_fee","type":"uint256"}],"name":"setTradingFee","outputs":[],"stateMutability":"nonpayable","type":"function"},{"inputs":[],"name":"tradingFee","outputs":[{"internalType":"uint256","name":"","type":"uint256"}],"stateMutability":"view","type":"function"},{"inputs":[{"internalType":"address","name":"newOwner","type":"address"}],"name":"transferOwnership","outputs":[],"stateMutability":"nonpayable","type":"function"},{"inputs":[],"name":"unpause","outputs":[],"stateMutability":"nonpayable","type":"function"},{"inputs":[{"internalType":"address","name":"_to","type":"address"}],"name":"withdrawFees","outputs":[],"stateMutability":"nonpayable","type":"function"},{"inputs":[{"internalType":"uint256","name":"","type":"uint256"},{"internalType":"address","name":"","type":"address"}],"name":"yesShares","outputs":[{"internalType":"uint256","name":"","type":"uint256"}],"stateMutability":"view","type":"function"}],"evm":{"bytecode":{"linkReferences":{},"object":"60c060405260c860035560006004553480156200001b57600080fd5b5060405162002c7e38038062002c7e8339810160408190526200003e9162000128565b33806200006657604051631e4fbdf760e01b8152600060048201526024015b60405180910390fd5b6200007181620000d8565b50600180556001600160a01b038216620000be5760405162461bcd60e51b815260206004820152600d60248201526c24b73b30b634b2103a37b5b2b760991b60448201526064016200005d565b6001600160a01b0390911660805260ff1660a05262000177565b600080546001600160a01b038381166001600160a01b0319831681178455604051919092169283917f8be0079c531659141344cd1fd0a4f28419497f9722a3daafe3b4186f6b6457e09190a35050565b600080604083850312156200013c57600080fd5b82516001600160a01b03811681146200015457600080fd5b602084015190925060ff811681146200016c57600080fd5b809150509250929050565b60805160a051612ab7620001c760003960006105d3015260008181610438015281816106a701528181610b7301528181610dad015281816110d801528181611f42015261216d0152612ab76000f3fe608060405234801561001057600080fd5b506004361061023d5760003560e01c8063b0d54bcf1161013b578063dce0b4e4116100b8578063ec9790821161007c578063ec979082146105c5578063ec9c6c30146105ce578063eced552614610607578063f2fde38b14610616578063fb27260b1461062957600080fd5b8063dce0b4e41461055a578063df55406e14610563578063dffad4e214610576578063ea17589414610589578063eb44fdd31461059c57600080fd5b8063b93793e9116100ff578063b93793e91461046d578063c354648514610490578063caec3f78146104a3578063d29f541d146104ce578063d73792a91461055157600080fd5b8063b0d54bcf146103e3578063b1283e77146103f6578063b1fb5e2b14610420578063b2016bd414610433578063b7d862251461045a57600080fd5b80635b7baf64116101c95780637c16cd9e1161018d5780637c16cd9e1461037d5780638205ebcb146103905780638456cb59146103a35780638da5cb5b146103ab5780639ba85fae146103d057600080fd5b80635b7baf641461033b5780635c975abb1461034e57806362a5dbbc14610359578063677bd9ff14610362578063715018a61461037557600080fd5b806321b77d631161021057806321b77d63146102ce5780633f4ba83a146102d75780634cafa95e146102df57806356f4335214610307578063578efbe91461031057600080fd5b8063120aa87714610242578063164e68de1461028557806316fe69291461029a5780631da6ed7c146102bb575b600080fd5b610270610250366004612462565b600a60209081526000928352604080842090915290825290205460ff1681565b60405190151581526020015b60405180910390f35b61029861029336600461248e565b61063c565b005b6102ad6102a83660046124a9565b610715565b60405190815260200161027c565b6102986102c93660046124d5565b6107e9565b6102ad6103e881565b610298610849565b6102f26102ed366004612520565b61085b565b6040805192835260208301919091520161027c565b6102ad60035481565b6102ad61031e366004612462565b600860209081526000928352604080842090915290825290205481565b610298610349366004612555565b61097d565b60025460ff16610270565b6102ad60055481565b610298610370366004612555565b610be4565b610298610e1e565b61029861038b366004612555565b610e30565b6102ad61039e36600461256e565b610fd4565b610298611205565b6000546001600160a01b03165b6040516001600160a01b03909116815260200161027c565b6102ad6103de366004612555565b611215565b6102986103f1366004612555565b61128e565b610409610404366004612555565b611318565b60405161027c9b9a9998979695949392919061267b565b6102f261042e366004612520565b61140b565b6103b87f000000000000000000000000000000000000000000000000000000000000000081565b610298610468366004612555565b6114fd565b61027061047b36600461248e565b600b6020526000908152604090205460ff1681565b6102ad61049e366004612555565b61150a565b6102ad6104b1366004612462565b600960209081526000928352604080842090915290825290205481565b6105346104dc366004612462565b60008281526008602090815260408083206001600160a01b03949094168084529382528083205485845260098352818420858552835281842054958452600a835281842094845293909152902054909260ff90911690565b60408051938452602084019290925215159082015260600161027c565b6102ad61271081565b6102ad60045481565b6102986105713660046126fb565b611572565b6102ad6105843660046124a9565b6117c0565b6102ad6105973660046124a9565b611881565b6105af6105aa366004612555565b611942565b60405161027c9a9998979695949392919061271e565b6102ad60065481565b6105f57f000000000000000000000000000000000000000000000000000000000000000081565b60405160ff909116815260200161027c565b6102ad670de0b6b3a764000081565b61029861062436600461248e565b611a5b565b6102ad6106373660046124a9565b611a96565b610644611b57565b6000600554116106915760405162461bcd60e51b81526020600482015260136024820152724e6f206665657320746f20776974686472617760681b60448201526064015b60405180910390fd5b6005805460009091556106ce6001600160a01b037f0000000000000000000000000000000000000000000000000000000000000000168383611b84565b816001600160a01b03167fc0819c13be868895eb93e40eaceb96de976442fa1d404e5c55f14bb65a8c489a8260405161070991815260200190565b60405180910390a25050565b60008360008111801561072a57506006548111155b6107465760405162461bcd60e51b815260040161068890612797565b60008181526007602052604081206006015460ff16600281111561076c5761076c612647565b146107895760405162461bcd60e51b8152600401610688906127bf565b60008181526007602052604090206002015442106107b95760405162461bcd60e51b8152600401610688906127ea565b6107c1611be8565b6107c9611c0c565b6107d68560028686611c36565b91506107e160018055565b509392505050565b6107f1611b57565b6001600160a01b0382166000818152600b6020908152604091829020805460ff191685151590811790915591519182527fd8ea402e95478feee1bea3f652c970c98c456281ae29a9987918e9e8b6754bb49101610709565b610851611b57565b610859611fcf565b565b60008381526007602052604081208190600185600281111561087f5761087f612647565b036108fe5760008160040154826003015461089a9190612828565b905060008583600301546108ae9190612845565b905060006108bc8284612858565b84600401546108cb919061287a565b9050612710600354826108de9190612828565b6108e89190612858565b94506108f4858261287a565b9550505050610974565b6000816004015482600301546109149190612828565b905060008583600401546109289190612845565b905060006109368284612858565b8460030154610945919061287a565b9050612710600354826109589190612828565b6109629190612858565b945061096e858261287a565b95505050505b50935093915050565b610985611c0c565b60008111801561099757506006548111155b6109b35760405162461bcd60e51b815260040161068890612797565b60008181526007602052604090206002600682015460ff1660028111156109dc576109dc612647565b14610a195760405162461bcd60e51b815260206004820152600d60248201526c139bdd0818d85b98d95b1b1959609a1b6044820152606401610688565b6000828152600a6020908152604080832033845290915290205460ff1615610a755760405162461bcd60e51b815260206004820152600f60248201526e105b1c9958591e4818db185a5b5959608a1b6044820152606401610688565b600082815260086020908152604080832033808552908352818420548685526009845282852091855292528220549091610aaf8284612845565b905060008111610af75760405162461bcd60e51b8152602060048201526013602482015272139bc81cda185c995cc81d1bc81c99599d5b99606a1b6044820152606401610688565b6000828410610b065782610b08565b835b90506000610b17826002612828565b610b21908461287a565b90506000610b30600283612858565b610b3a9084612845565b6000898152600a602090815260408083203384529091529020805460ff1916600117905590508015610b9a57610b9a6001600160a01b037f0000000000000000000000000000000000000000000000000000000000000000163383611b84565b604051818152339089907ff3f402280ef0a7905e124aa621b65eaeb2725c343e8b36d398ed78c29daf285c9060200160405180910390a350505050505050610be160018055565b50565b610bec611c0c565b600081118015610bfe57506006548111155b610c1a5760405162461bcd60e51b815260040161068890612797565b60008181526007602052604090206001600682015460ff166002811115610c4357610c43612647565b14610c7f5760405162461bcd60e51b815260206004820152600c60248201526b139bdd081c995cdbdb1d995960a21b6044820152606401610688565b6000828152600a6020908152604080832033845290915290205460ff1615610cdb5760405162461bcd60e51b815260206004820152600f60248201526e105b1c9958591e4818db185a5b5959608a1b6044820152606401610688565b600060016006830154610100900460ff166002811115610cfd57610cfd612647565b03610d2257506000828152600860209081526040808320338452909152902054610d3e565b5060008281526009602090815260408083203384529091529020545b60008111610d825760405162461bcd60e51b81526020600482015260116024820152704e6f2077696e6e696e672073686172657360781b6044820152606401610688565b6000838152600a60209081526040808320338085529252909120805460ff19166001179055610ddc907f00000000000000000000000000000000000000000000000000000000000000006001600160a01b03169083611b84565b604051818152339084907f5380cf6fe903b40c6d5a9e0dfbca2f3a423f0a21520b4d5947ed5169bdba946d9060200160405180910390a35050610be160018055565b610e26611b57565b6108596000612021565b60008181526007602052604081208291610e526000546001600160a01b031690565b6001600160a01b0316336001600160a01b03161480610e805750336000908152600b602052604090205460ff165b80610eae575060078201546001600160a01b031615801590610eae575060078201546001600160a01b031633145b905080610ef95760405162461bcd60e51b81526020600482015260196024820152784e6f7420617574686f72697a656420746f207265736f6c766560381b6044820152606401610688565b610f01611be8565b600084118015610f1357506006548411155b610f2f5760405162461bcd60e51b815260040161068890612797565b600084815260076020526040812090600682015460ff166002811115610f5757610f57612647565b14610f915760405162461bcd60e51b815260206004820152600a6024820152694e6f742061637469766560b01b6044820152606401610688565b60068101805460ff19166002179055604051339086907f80cbe856a464968c63953aeb2dd84c12de3a0715985cae2ea35d3ed87e39ddc390600090a35050505050565b6000610fde611be8565b610fe6611c0c565b846110245760405162461bcd60e51b815260206004820152600e60248201526d22b6b83a3c9038bab2b9ba34b7b760911b6044820152606401610688565b4284116110735760405162461bcd60e51b815260206004820152601b60248201527f5265736f6c76652074696d65206d7573742062652066757475726500000000006044820152606401610688565b6103e88310156110b95760405162461bcd60e51b81526020600482015260116024820152704c697175696469747920746f6f206c6f7760781b6044820152606401610688565b6000600454846110c99190612845565b90506111006001600160a01b037f000000000000000000000000000000000000000000000000000000000000000016333084612071565b600454600560008282546111149190612845565b9091555050600680549060006111298361288d565b9091555050600654600081815260076020526040902081815560018101611151898b83612944565b50600281018790556003810186905560048101869055600060058201556006810180546001600160b01b03191633620100008102919091179091556007820180546001600160a01b0319166001600160a01b03881617905542600883015560405183907f0ea87aed8cca8119db150b8fa32c1f5af47939cd58980d0c2752140b47e21048906111e7908d908d908d908d90612a05565b60405180910390a3509150506111fc60018055565b95945050505050565b61120d611b57565b6108596120b0565b6000818152600760205260408120600481015460038201546112379190612845565b600003611258576112516002670de0b6b3a7640000612858565b9392505050565b8060040154816003015461126c9190612845565b670de0b6b3a764000082600401546112849190612828565b6112519190612858565b611296611b57565b6103e88111156112d75760405162461bcd60e51b815260206004820152600c60248201526b08ccaca40e8dede40d0d2ced60a31b6044820152606401610688565b60035460408051918252602082018390527f048ced0cbfd080780177282231c1bcf4b2e117ba3c76f5081b3dbab6dc6e1e1b910160405180910390a1600355565b6007602052600090815260409020805460018201805491929161133a906128bc565b80601f0160208091040260200160405190810160405280929190818152602001828054611366906128bc565b80156113b35780601f10611388576101008083540402835291602001916113b3565b820191906000526020600020905b81548152906001019060200180831161139657829003601f168201915b505050600284015460038501546004860154600587015460068801546007890154600890990154979894979396509194509260ff808316936101008404909116926001600160a01b036201000090910481169216908b565b60008381526007602052604081206003548291906127109061142d9086612828565b6114379190612858565b91506000611445838661287a565b9050600186600281111561145b5761145b612647565b036114ae576000826004015483600301546114769190612828565b9050600082846004015461148a9190612845565b90506114968183612858565b84600301546114a5919061287a565b955050506114f3565b6000826004015483600301546114c49190612828565b905060008284600301546114d89190612845565b90506114e48183612858565b846004015461096e919061287a565b5050935093915050565b611505611b57565b600455565b60008181526007602052604081206004810154600382015461152c9190612845565b600003611546576112516002670de0b6b3a7640000612858565b8060040154816003015461155a9190612845565b670de0b6b3a764000082600301546112849190612828565b600082815260076020526040812083916115946000546001600160a01b031690565b6001600160a01b0316336001600160a01b031614806115c25750336000908152600b602052604090205460ff165b806115f0575060078201546001600160a01b0316158015906115f0575060078201546001600160a01b031633145b90508061163b5760405162461bcd60e51b81526020600482015260196024820152784e6f7420617574686f72697a656420746f207265736f6c766560381b6044820152606401610688565b611643611be8565b60008511801561165557506006548511155b6116715760405162461bcd60e51b815260040161068890612797565b600085815260076020526040812090600682015460ff16600281111561169957611699612647565b146116d35760405162461bcd60e51b815260206004820152600a6024820152694e6f742061637469766560b01b6044820152606401610688565b60018560028111156116e7576116e7612647565b14806117045750600285600281111561170257611702612647565b145b6117425760405162461bcd60e51b815260206004820152600f60248201526e496e76616c6964206f7574636f6d6560881b6044820152606401610688565b600681018054600160ff1982168117835587929161ffff19161761010083600281111561177157611771612647565b0217905550336001600160a01b0316867f13bfa3c09213a32e3e4e61fbacd90900cec1e99511766660189122444fdeec7d876040516117b09190612a45565b60405180910390a3505050505050565b6000836000811180156117d557506006548111155b6117f15760405162461bcd60e51b815260040161068890612797565b60008181526007602052604081206006015460ff16600281111561181757611817612647565b146118345760405162461bcd60e51b8152600401610688906127bf565b60008181526007602052604090206002015442106118645760405162461bcd60e51b8152600401610688906127ea565b61186c611be8565b611874611c0c565b6107d68560018686611c36565b60008360008111801561189657506006548111155b6118b25760405162461bcd60e51b815260040161068890612797565b60008181526007602052604081206006015460ff1660028111156118d8576118d8612647565b146118f55760405162461bcd60e51b8152600401610688906127bf565b60008181526007602052604090206002015442106119255760405162461bcd60e51b8152600401610688906127ea565b61192d611be8565b611935611c0c565b6107d685600286866120ed565b600081815260076020526040812080546002820154600383015460048401546005850154600686015460088701546001880180546060998b998a998a998a998a998a998a998a99979896979660ff80841693610100810490911692620100009091046001600160a01b03169189906119b9906128bc565b80601f01602080910402602001604051908101604052809291908181526020018280546119e5906128bc565b8015611a325780601f10611a0757610100808354040283529160200191611a32565b820191906000526020600020905b815481529060010190602001808311611a1557829003601f168201915b505050505098509a509a509a509a509a509a509a509a509a509a50509193959799509193959799565b611a63611b57565b6001600160a01b038116611a8d57604051631e4fbdf760e01b815260006004820152602401610688565b610be181612021565b600083600081118015611aab57506006548111155b611ac75760405162461bcd60e51b815260040161068890612797565b60008181526007602052604081206006015460ff166002811115611aed57611aed612647565b14611b0a5760405162461bcd60e51b8152600401610688906127bf565b6000818152600760205260409020600201544210611b3a5760405162461bcd60e51b8152600401610688906127ea565b611b42611be8565b611b4a611c0c565b6107d685600186866120ed565b6000546001600160a01b031633146108595760405163118cdaa760e01b8152336004820152602401610688565b6040516001600160a01b03838116602483015260448201839052611be391859182169063a9059cbb906064015b604051602081830303815290604052915060e01b6020820180516001600160e01b0383818316178352505050506123b2565b505050565b60025460ff16156108595760405163d93c066560e01b815260040160405180910390fd5b600260015403611c2f57604051633ee5aeb560e01b815260040160405180910390fd5b6002600155565b6000808311611c7c5760405162461bcd60e51b81526020600482015260126024820152710536861726573206d757374206265203e20360741b6044820152606401610688565b60008581526007602052604090206001856002811115611c9e57611c9e612647565b03611da3576000868152600860209081526040808320338452909152902054841115611d0c5760405162461bcd60e51b815260206004820152601760248201527f496e73756666696369656e7420594553207368617265730000000000000000006044820152606401610688565b600081600401548260030154611d229190612828565b905084826003016000828254611d389190612845565b90915550506003820154600090611d4f9083612858565b9050808360040154611d61919061287a565b600484018290556000898152600860209081526040808320338452909152812080549296508892909190611d9690849061287a565b90915550611e9792505050565b6000868152600960209081526040808320338452909152902054841115611e055760405162461bcd60e51b8152602060048201526016602482015275496e73756666696369656e74204e4f2073686172657360501b6044820152606401610688565b600081600401548260030154611e1b9190612828565b905084826004016000828254611e319190612845565b90915550506003820154600090611e489083612858565b9050808360030154611e5a919061287a565b600384018290556000898152600960209081526040808320338452909152812080549296508892909190611e8f90849061287a565b909155505050505b600061271060035484611eaa9190612828565b611eb49190612858565b90506000611ec2828561287a565b90508160056000828254611ed69190612845565b909155505084811015611f355760405162461bcd60e51b815260206004820152602160248201527f536c6970706167653a20696e73756666696369656e7420636f6c6c61746572616044820152601b60fa1b6064820152608401610688565b611f696001600160a01b037f0000000000000000000000000000000000000000000000000000000000000000163383611b84565b83836005016000828254611f7d9190612845565b9091555050604051339089907f33ba5430a0927da6d229bdbb599116768f98d165aba758c2505bae721177092a90611fbc908b908b9087908990612a58565b60405180910390a3979650505050505050565b611fd7612423565b6002805460ff191690557f5db9ee0a495bf2e6ff9c91a7834c1ba4fdd244a5e8aa4e537bd38aeae4b073aa335b6040516001600160a01b03909116815260200160405180910390a1565b600080546001600160a01b038381166001600160a01b0319831681178455604051919092169283917f8be0079c531659141344cd1fd0a4f28419497f9722a3daafe3b4186f6b6457e09190a35050565b6040516001600160a01b0384811660248301528381166044830152606482018390526120aa9186918216906323b872dd90608401611bb1565b50505050565b6120b8611be8565b6002805460ff191660011790557f62e78cea01bee320cd4e420270b5ea74000d11b0c9f74754ebdbfc544b05a2586120043390565b60008083116121335760405162461bcd60e51b81526020600482015260126024820152710416d6f756e74206d757374206265203e20360741b6044820152606401610688565b6000612710600354856121469190612828565b6121509190612858565b9050600061215e828661287a565b90506121956001600160a01b037f000000000000000000000000000000000000000000000000000000000000000016333088612071565b81600560008282546121a79190612845565b9091555050600087815260076020526040902060018760028111156121ce576121ce612647565b0361226a576000816004015482600301546121e99190612828565b9050828260040160008282546121ff9190612845565b909155505060048201546000906122169083612858565b9050808360030154612228919061287a565b6003840182905560008b815260086020908152604080832033845290915281208054929850889290919061225d908490612845565b909155506122fc92505050565b6000816004015482600301546122809190612828565b9050828260030160008282546122969190612845565b909155505060038201546000906122ad9083612858565b90508083600401546122bf919061287a565b6004840182905560008b81526009602090815260408083203384529091528120805492985088929091906122f4908490612845565b909155505050505b8484101561234c5760405162461bcd60e51b815260206004820152601d60248201527f536c6970706167653a20696e73756666696369656e74207368617265730000006044820152606401610688565b858160050160008282546123609190612845565b9091555050604051339089907f4cc5c4de784d8eb588dc24d93cff39d9266c5c2dafac39da66fe0f560abbbfed9061239f908b908b908a908a90612a58565b60405180910390a3505050949350505050565b600080602060008451602086016000885af1806123d5576040513d6000823e3d81fd5b50506000513d915081156123ed5780600114156123fa565b6001600160a01b0384163b155b156120aa57604051635274afe760e01b81526001600160a01b0385166004820152602401610688565b60025460ff1661085957604051638dfc202b60e01b815260040160405180910390fd5b80356001600160a01b038116811461245d57600080fd5b919050565b6000806040838503121561247557600080fd5b8235915061248560208401612446565b90509250929050565b6000602082840312156124a057600080fd5b61125182612446565b6000806000606084860312156124be57600080fd5b505081359360208301359350604090920135919050565b600080604083850312156124e857600080fd5b6124f183612446565b91506020830135801515811461250657600080fd5b809150509250929050565b80356003811061245d57600080fd5b60008060006060848603121561253557600080fd5b8335925061254560208501612511565b9150604084013590509250925092565b60006020828403121561256757600080fd5b5035919050565b60008060008060006080868803121561258657600080fd5b853567ffffffffffffffff8082111561259e57600080fd5b818801915088601f8301126125b257600080fd5b8135818111156125c157600080fd5b8960208285010111156125d357600080fd5b602092830197509550508601359250604086013591506125f560608701612446565b90509295509295909350565b6000815180845260005b818110156126275760208185018101518683018201520161260b565b506000602082860101526020601f19601f83011685010191505092915050565b634e487b7160e01b600052602160045260246000fd5b60038110610be157634e487b7160e01b600052602160045260246000fd5b60006101608d83528060208401526126958184018e612601565b9150508a60408301528960608301528860808301528760a08301526126b98761265d565b8660c08301526126c88661265d565b60e08201959095526001600160a01b03938416610100820152919092166101208201526101400152979650505050505050565b6000806040838503121561270e57600080fd5b8235915061248560208401612511565b60006101408c83528060208401526127388184018d612601565b9150508960408301528860608301528760808301528660a083015261275c8661265d565b8560c083015261276b8561265d565b60e08201949094526001600160a01b039290921661010083015261012090910152979650505050505050565b6020808252600e908201526d125b9d985b1a59081b585c9ad95d60921b604082015260600190565b6020808252601190820152704d61726b6574206e6f742061637469766560781b604082015260600190565b6020808252600e908201526d13585c9ad95d08195e1c1a5c995960921b604082015260600190565b634e487b7160e01b600052601160045260246000fd5b808202811582820484141761283f5761283f612812565b92915050565b8082018082111561283f5761283f612812565b60008261287557634e487b7160e01b600052601260045260246000fd5b500490565b8181038181111561283f5761283f612812565b60006001820161289f5761289f612812565b5060010190565b634e487b7160e01b600052604160045260246000fd5b600181811c908216806128d057607f821691505b6020821081036128f057634e487b7160e01b600052602260045260246000fd5b50919050565b601f821115611be357600081815260208120601f850160051c8101602086101561291d5750805b601f850160051c820191505b8181101561293c57828155600101612929565b505050505050565b67ffffffffffffffff83111561295c5761295c6128a6565b6129708361296a83546128bc565b836128f6565b6000601f8411600181146129a4576000851561298c5750838201355b600019600387901b1c1916600186901b1783556129fe565b600083815260209020601f19861690835b828110156129d557868501358255602094850194600190920191016129b5565b50868210156129f25760001960f88860031b161c19848701351681555b505060018560011b0183555b5050505050565b606081528360608201528385608083013760006080858301015260006080601f19601f870116830101905083602083015282604083015295945050505050565b60208101612a528361265d565b91905290565b60808101612a658661265d565b948152602081019390935260408301919091526060909101529056fea2646970667358221220619a8f56b0b86ec89b2bfeab945581cecb1581429ea623243bd925e4660fe4bd64736f6c63430008140033","opcodes":"PUSH1 0xC0 PUSH1 0x40 MSTORE PUSH1 0xC8 PUSH1 0x3 SSTORE PUSH1 0x0 PUSH1 0x4 SSTORE CALLVALUE DUP1 ISZERO PUSH3 0x1B JUMPI PUSH1 0x0 DUP1 REVERT JUMPDEST POP PUSH1 0x40 MLOAD PUSH3 0x2C7E CODESIZE SUB DUP1 PUSH3 0x2C7E DUP4 CODECOPY DUP2 ADD PUSH1 0x40 DUP2 SWAP1 MSTORE PUSH3 0x3E SWAP2 PUSH3 0x128 JUMP JUMPDEST CALLER DUP1 PUSH3 0x66 JUMPI PUSH1 0x40 MLOAD PUSH4 0x1E4FBDF7 PUSH1 0xE0 SHL DUP2 MSTORE PUSH1 0x0 PUSH1 0x4 DUP3 ADD MSTORE PUSH1 0x24 ADD JUMPDEST PUSH1 0x40 MLOAD DUP1 SWAP2 SUB SWAP1 REVERT JUMPDEST PUSH3 0x71 DUP2 PUSH3 0xD8 JUMP JUMPDEST POP PUSH1 0x1 DUP1 SSTORE PUSH1 0x1 PUSH1 0x1 PUSH1 0xA0 SHL SUB DUP3 AND PUSH3 0xBE JUMPI PUSH1 0x40 MLOAD PUSH3 0x461BCD PUSH1 0xE5 SHL DUP2 MSTORE PUSH1 0x20 PUSH1 0x4 DUP3 ADD MSTORE PUSH1 0xD PUSH1 0x24 DUP3 ADD MSTORE PUSH13 0x24B73B30B634B2103A37B5B2B7 PUSH1 0x99 SHL PUSH1 0x44 DUP3 ADD MSTORE PUSH1 0x64 ADD PUSH3 0x5D JUMP JUMPDEST PUSH1 0x1 PUSH1 0x1 PUSH1 0xA0 SHL SUB SWAP1 SWAP2 AND PUSH1 0x80 MSTORE PUSH1 0xFF AND PUSH1 0xA0 MSTORE PUSH3 0x177 JUMP JUMPDEST PUSH1 0x0 DUP1 SLOAD PUSH1 0x1 PUSH1 0x1 PUSH1 0xA0 SHL SUB DUP4 DUP2 AND PUSH1 0x1 PUSH1 0x1 PUSH1 0xA0 SHL SUB NOT DUP4 AND DUP2 OR DUP5 SSTORE PUSH1 0x40 MLOAD SWAP2 SWAP1 SWAP3 AND SWAP3 DUP4 SWAP2 PUSH32 0x8BE0079C531659141344CD1FD0A4F28419497F9722A3DAAFE3B4186F6B6457E0 SWAP2 SWAP1 LOG3 POP POP JUMP JUMPDEST PUSH1 0x0 DUP1 PUSH1 0x40 DUP4 DUP6 SUB SLT ISZERO PUSH3 0x13C JUMPI PUSH1 0x0 DUP1 REVERT JUMPDEST DUP3 MLOAD PUSH1 0x1 PUSH1 0x1 PUSH1 0xA0 SHL SUB DUP2 AND DUP2 EQ PUSH3 0x154 JUMPI PUSH1 0x0 DUP1 REVERT JUMPDEST PUSH1 0x20 DUP5 ADD MLOAD SWAP1 SWAP3 POP PUSH1 0xFF DUP2 AND DUP2 EQ PUSH3 0x16C JUMPI PUSH1 0x0 DUP1 REVERT JUMPDEST DUP1 SWAP2 POP POP SWAP3 POP SWAP3 SWAP1 POP JUMP JUMPDEST PUSH1 0x80 MLOAD PUSH1 0xA0 MLOAD PUSH2 0x2AB7 PUSH3 0x1C7 PUSH1 0x0 CODECOPY PUSH1 0x0 PUSH2 0x5D3 ADD MSTORE PUSH1 0x0 DUP2 DUP2 PUSH2 0x438 ADD MSTORE DUP2 DUP2 PUSH2 0x6A7 ADD MSTORE DUP2 DUP2 PUSH2 0xB73 ADD MSTORE DUP2 DUP2 PUSH2 0xDAD ADD MSTORE DUP2 DUP2 PUSH2 0x10D8 ADD MSTORE DUP2 DUP2 PUSH2 0x1F42 ADD MSTORE PUSH2 0x216D ADD MSTORE PUSH2 0x2AB7 PUSH1 0x0 RETURN INVALID PUSH1 0x80 PUSH1 0x40 MSTORE CALLVALUE DUP1 ISZERO PUSH2 0x10 JUMPI PUSH1 0x0 DUP1 REVERT JUMPDEST POP PUSH1 0x4 CALLDATASIZE LT PUSH2 0x23D JUMPI PUSH1 0x0 CALLDATALOAD PUSH1 0xE0 SHR DUP1 PUSH4 0xB0D54BCF GT PUSH2 0x13B JUMPI DUP1 PUSH4 0xDCE0B4E4 GT PUSH2 0xB8 JUMPI DUP1 PUSH4 0xEC979082 GT PUSH2 0x7C JUMPI DUP1 PUSH4 0xEC979082 EQ PUSH2 0x5C5 JUMPI DUP1 PUSH4 0xEC9C6C30 EQ PUSH2 0x5CE JUMPI DUP1 PUSH4 0xECED5526 EQ PUSH2 0x607 JUMPI DUP1 PUSH4 0xF2FDE38B EQ PUSH2 0x616 JUMPI DUP1 PUSH4 0xFB27260B EQ PUSH2 0x629 JUMPI PUSH1 0x0 DUP1 REVERT JUMPDEST DUP1 PUSH4 0xDCE0B4E4 EQ PUSH2 0x55A JUMPI DUP1 PUSH4 0xDF55406E EQ PUSH2 0x563 JUMPI DUP1 PUSH4 0xDFFAD4E2 EQ PUSH2 0x576 JUMPI DUP1 PUSH4 0xEA175894 EQ PUSH2 0x589 JUMPI DUP1 PUSH4 0xEB44FDD3 EQ PUSH2 0x59C JUMPI PUSH1 0x0 DUP1 REVERT JUMPDEST DUP1 PUSH4 0xB93793E9 GT PUSH2 0xFF JUMPI DUP1 PUSH4 0xB93793E9 EQ PUSH2 0x46D JUMPI DUP1 PUSH4 0xC3546485 EQ PUSH2 0x490 JUMPI DUP1 PUSH4 0xCAEC3F78 EQ PUSH2 0x4A3 JUMPI DUP1 PUSH4 0xD29F541D EQ PUSH2 0x4CE JUMPI DUP1 PUSH4 0xD73792A9 EQ PUSH2 0x551 JUMPI PUSH1 0x0 DUP1 REVERT JUMPDEST DUP1 PUSH4 0xB0D54BCF EQ PUSH2 0x3E3 JUMPI DUP1 PUSH4 0xB1283E77 EQ PUSH2 0x3F6 JUMPI DUP1 PUSH4 0xB1FB5E2B EQ PUSH2 0x420 JUMPI DUP1 PUSH4 0xB2016BD4 EQ PUSH2 0x433 JUMPI DUP1 PUSH4 0xB7D86225 EQ PUSH2 0x45A JUMPI PUSH1 0x0 DUP1 REVERT JUMPDEST DUP1 PUSH4 0x5B7BAF64 GT PUSH2 0x1C9 JUMPI DUP1 PUSH4 0x7C16CD9E GT PUSH2 0x18D JUMPI DUP1 PUSH4 0x7C16CD9E EQ PUSH2 0x37D JUMPI DUP1 PUSH4 0x8205EBCB EQ PUSH2 0x390 JUMPI DUP1 PUSH4 0x8456CB59 EQ PUSH2 0x3A3 JUMPI DUP1 PUSH4 0x8DA5CB5B EQ PUSH2 0x3AB JUMPI DUP1 PUSH4 0x9BA85FAE EQ PUSH2 0x3D0 JUMPI PUSH1 0x0 DUP1 REVERT JUMPDEST DUP1 PUSH4 0x5B7BAF64 EQ PUSH2 0x33B JUMPI DUP1 PUSH4 0x5C975ABB EQ PUSH2 0x34E JUMPI DUP1 PUSH4 0x62A5DBBC EQ PUSH2 0x359 JUMPI DUP1 PUSH4 0x677BD9FF EQ PUSH2 0x362 JUMPI DUP1 PUSH4 0x715018A6 EQ PUSH2 0x375 JUMPI PUSH1 0x0 DUP1 REVERT JUMPDEST DUP1 PUSH4 0x21B77D63 GT PUSH2 0x210 JUMPI DUP1 PUSH4 0x21B77D63 EQ PUSH2 0x2CE JUMPI DUP1 PUSH4 0x3F4BA83A EQ PUSH2 0x2D7 JUMPI DUP1 PUSH4 0x4CAFA95E EQ PUSH2 0x2DF JUMPI DUP1 PUSH4 0x56F43352 EQ PUSH2 0x307 JUMPI DUP1 PUSH4 0x578EFBE9 EQ PUSH2 0x310 JUMPI PUSH1 0x0 DUP1 REVERT JUMPDEST DUP1 PUSH4 0x120AA877 EQ PUSH2 0x242 JUMPI DUP1 PUSH4 0x164E68DE EQ PUSH2 0x285 JUMPI DUP1 PUSH4 0x16FE6929 EQ PUSH2 0x29A JUMPI DUP1 PUSH4 0x1DA6ED7C EQ PUSH2 0x2BB JUMPI JUMPDEST PUSH1 0x0 DUP1 REVERT JUMPDEST PUSH2 0x270 PUSH2 0x250 CALLDATASIZE PUSH1 0x4 PUSH2 0x2462 JUMP JUMPDEST PUSH1 0xA PUSH1 0x20 SWAP1 DUP2 MSTORE PUSH1 0x0 SWAP3 DUP4 MSTORE PUSH1 0x40 DUP1 DUP5 KECCAK256 SWAP1 SWAP2 MSTORE SWAP1 DUP3 MSTORE SWAP1 KECCAK256 SLOAD PUSH1 0xFF AND DUP2 JUMP JUMPDEST PUSH1 0x40 MLOAD SWAP1 ISZERO ISZERO DUP2 MSTORE PUSH1 0x20 ADD JUMPDEST PUSH1 0x40 MLOAD DUP1 SWAP2 SUB SWAP1 RETURN JUMPDEST PUSH2 0x298 PUSH2 0x293 CALLDATASIZE PUSH1 0x4 PUSH2 0x248E JUMP JUMPDEST PUSH2 0x63C JUMP JUMPDEST STOP JUMPDEST PUSH2 0x2AD PUSH2 0x2A8 CALLDATASIZE PUSH1 0x4 PUSH2 0x24A9 JUMP JUMPDEST PUSH2 0x715 JUMP JUMPDEST PUSH1 0x40 MLOAD SWAP1 DUP2 MSTORE PUSH1 0x20 ADD PUSH2 0x27C JUMP JUMPDEST PUSH2 0x298 PUSH2 0x2C9 CALLDATASIZE PUSH1 0x4 PUSH2 0x24D5 JUMP JUMPDEST PUSH2 0x7E9 JUMP JUMPDEST PUSH2 0x2AD PUSH2 0x3E8 DUP2 JUMP JUMPDEST PUSH2 0x298 PUSH2 0x849 JUMP JUMPDEST PUSH2 0x2F2 PUSH2 0x2ED CALLDATASIZE PUSH1 0x4 PUSH2 0x2520 JUMP JUMPDEST PUSH2 0x85B JUMP JUMPDEST PUSH1 0x40 DUP1 MLOAD SWAP3 DUP4 MSTORE PUSH1 0x20 DUP4 ADD SWAP2 SWAP1 SWAP2 MSTORE ADD PUSH2 0x27C JUMP JUMPDEST PUSH2 0x2AD PUSH1 0x3 SLOAD DUP2 JUMP JUMPDEST PUSH2 0x2AD PUSH2 0x31E CALLDATASIZE PUSH1 0x4 PUSH2 0x2462 JUMP JUMPDEST PUSH1 0x8 PUSH1 0x20 SWAP1 DUP2 MSTORE PUSH1 0x0 SWAP3 DUP4 MSTORE PUSH1 0x40 DUP1 DUP5 KECCAK256 SWAP1 SWAP2 MSTORE SWAP1 DUP3 MSTORE SWAP1 KECCAK256 SLOAD DUP2 JUMP JUMPDEST PUSH2 0x298 PUSH2 0x349 CALLDATASIZE PUSH1 0x4 PUSH2 0x2555 JUMP JUMPDEST PUSH2 0x97D JUMP JUMPDEST PUSH1 0x2 SLOAD PUSH1 0xFF AND PUSH2 0x270 JUMP JUMPDEST PUSH2 0x2AD PUSH1 0x5 SLOAD DUP2 JUMP JUMPDEST PUSH2 0x298 PUSH2 0x370 CALLDATASIZE PUSH1 0x4 PUSH2 0x2555 JUMP JUMPDEST PUSH2 0xBE4 JUMP JUMPDEST PUSH2 0x298 PUSH2 0xE1E JUMP JUMPDEST PUSH2 0x298 PUSH2 0x38B CALLDATASIZE PUSH1 0x4 PUSH2 0x2555 JUMP JUMPDEST PUSH2 0xE30 JUMP JUMPDEST PUSH2 0x2AD PUSH2 0x39E CALLDATASIZE PUSH1 0x4 PUSH2 0x256E JUMP JUMPDEST PUSH2 0xFD4 JUMP JUMPDEST PUSH2 0x298 PUSH2 0x1205 JUMP JUMPDEST PUSH1 0x0 SLOAD PUSH1 0x1 PUSH1 0x1 PUSH1 0xA0 SHL SUB AND JUMPDEST PUSH1 0x40 MLOAD PUSH1 0x1 PUSH1 0x1 PUSH1 0xA0 SHL SUB SWAP1 SWAP2 AND DUP2 MSTORE PUSH1 0x20 ADD PUSH2 0x27C JUMP JUMPDEST PUSH2 0x2AD PUSH2 0x3DE CALLDATASIZE PUSH1 0x4 PUSH2 0x2555 JUMP JUMPDEST PUSH2 0x1215 JUMP JUMPDEST PUSH2 0x298 PUSH2 0x3F1 CALLDATASIZE PUSH1 0x4 PUSH2 0x2555 JUMP JUMPDEST PUSH2 0x128E JUMP JUMPDEST PUSH2 0x409 PUSH2 0x404 CALLDATASIZE PUSH1 0x4 PUSH2 0x2555 JUMP JUMPDEST PUSH2 0x1318 JUMP JUMPDEST PUSH1 0x40 MLOAD PUSH2 0x27C SWAP12 SWAP11 SWAP10 SWAP9 SWAP8 SWAP7 SWAP6 SWAP5 SWAP4 SWAP3 SWAP2 SWAP1 PUSH2 0x267B JUMP JUMPDEST PUSH2 0x2F2 PUSH2 0x42E CALLDATASIZE PUSH1 0x4 PUSH2 0x2520 JUMP JUMPDEST PUSH2 0x140B JUMP JUMPDEST PUSH2 0x3B8 PUSH32 0x0 DUP2 JUMP JUMPDEST PUSH2 0x298 PUSH2 0x468 CALLDATASIZE PUSH1 0x4 PUSH2 0x2555 JUMP JUMPDEST PUSH2 0x14FD JUMP JUMPDEST PUSH2 0x270 PUSH2 0x47B CALLDATASIZE PUSH1 0x4 PUSH2 0x248E JUMP JUMPDEST PUSH1 0xB PUSH1 0x20 MSTORE PUSH1 0x0 SWAP1 DUP2 MSTORE PUSH1 0x40 SWAP1 KECCAK256 SLOAD PUSH1 0xFF AND DUP2 JUMP JUMPDEST PUSH2 0x2AD PUSH2 0x49E CALLDATASIZE PUSH1 0x4 PUSH2 0x2555 JUMP JUMPDEST PUSH2 0x150A JUMP JUMPDEST PUSH2 0x2AD PUSH2 0x4B1 CALLDATASIZE PUSH1 0x4 PUSH2 0x2462 JUMP JUMPDEST PUSH1 0x9 PUSH1 0x20 SWAP1 DUP2 MSTORE PUSH1 0x0 SWAP3 DUP4 MSTORE PUSH1 0x40 DUP1 DUP5 KECCAK256 SWAP1 SWAP2 MSTORE SWAP1 DUP3 MSTORE SWAP1 KECCAK256 SLOAD DUP2 JUMP JUMPDEST PUSH2 0x534 PUSH2 0x4DC CALLDATASIZE PUSH1 0x4 PUSH2 0x2462 JUMP JUMPDEST PUSH1 0x0 DUP3 DUP2 MSTORE PUSH1 0x8 PUSH1 0x20 SWAP1 DUP2 MSTORE PUSH1 0x40 DUP1 DUP4 KECCAK256 PUSH1 0x1 PUSH1 0x1 PUSH1 0xA0 SHL SUB SWAP5 SWAP1 SWAP5 AND DUP1 DUP5 MSTORE SWAP4 DUP3 MSTORE DUP1 DUP4 KECCAK256 SLOAD DUP6 DUP5 MSTORE PUSH1 0x9 DUP4 MSTORE DUP2 DUP5 KECCAK256 DUP6 DUP6 MSTORE DUP4 MSTORE DUP2 DUP5 KECCAK256 SLOAD SWAP6 DUP5 MSTORE PUSH1 0xA DUP4 MSTORE DUP2 DUP5 KECCAK256 SWAP5 DUP5 MSTORE SWAP4 SWAP1 SWAP2 MSTORE SWAP1 KECCAK256 SLOAD SWAP1 SWAP3 PUSH1 0xFF SWAP1 SWAP2 AND SWAP1 JUMP JUMPDEST PUSH1 0x40 DUP1 MLOAD SWAP4 DUP5 MSTORE PUSH1 0x20 DUP5 ADD SWAP3 SWAP1 SWAP3 MSTORE ISZERO ISZERO SWAP1 DUP3 ADD MSTORE PUSH1 0x60 ADD PUSH2 0x27C JUMP JUMPDEST PUSH2 0x2AD PUSH2 0x2710 DUP2 JUMP JUMPDEST PUSH2 0x2AD PUSH1 0x4 SLOAD DUP2 JUMP JUMPDEST PUSH2 0x298 PUSH2 0x571 CALLDATASIZE PUSH1 0x4 PUSH2 0x26FB JUMP JUMPDEST PUSH2 0x1572 JUMP JUMPDEST PUSH2 0x2AD PUSH2 0x584 CALLDATASIZE PUSH1 0x4 PUSH2 0x24A9 JUMP JUMPDEST PUSH2 0x17C0 JUMP JUMPDEST PUSH2 0x2AD PUSH2 0x597 CALLDATASIZE PUSH1 0x4 PUSH2 0x24A9 JUMP JUMPDEST PUSH2 0x1881 JUMP JUMPDEST PUSH2 0x5AF PUSH2 0x5AA CALLDATASIZE PUSH1 0x4 PUSH2 0x2555 JUMP JUMPDEST PUSH2 0x1942 JUMP JUMPDEST PUSH1 0x40 MLOAD PUSH2 0x27C SWAP11 SWAP10 SWAP9 SWAP8 SWAP7 SWAP6 SWAP5 SWAP4 SWAP3 SWAP2 SWAP1 PUSH2 0x271E JUMP JUMPDEST PUSH2 0x2AD PUSH1 0x6 SLOAD DUP2 JUMP JUMPDEST PUSH2 0x5F5 PUSH32 0x0 DUP2 JUMP JUMPDEST PUSH1 0x40 MLOAD PUSH1 0xFF SWAP1 SWAP2 AND DUP2 MSTORE PUSH1 0x20 ADD PUSH2 0x27C JUMP JUMPDEST PUSH2 0x2AD PUSH8 0xDE0B6B3A7640000 DUP2 JUMP JUMPDEST PUSH2 0x298 PUSH2 0x624 CALLDATASIZE PUSH1 0x4 PUSH2 0x248E JUMP JUMPDEST PUSH2 0x1A5B JUMP JUMPDEST PUSH2 0x2AD PUSH2 0x637 CALLDATASIZE PUSH1 0x4 PUSH2 0x24A9 JUMP JUMPDEST PUSH2 0x1A96 JUMP JUMPDEST PUSH2 0x644 PUSH2 0x1B57 JUMP JUMPDEST PUSH1 0x0 PUSH1 0x5 SLOAD GT PUSH2 0x691 JUMPI PUSH1 0x40 MLOAD PUSH3 0x461BCD PUSH1 0xE5 SHL DUP2 MSTORE PUSH1 0x20 PUSH1 0x4 DUP3 ADD MSTORE PUSH1 0x13 PUSH1 0x24 DUP3 ADD MSTORE PUSH19 0x4E6F206665657320746F207769746864726177 PUSH1 0x68 SHL PUSH1 0x44 DUP3 ADD MSTORE PUSH1 0x64 ADD JUMPDEST PUSH1 0x40 MLOAD DUP1 SWAP2 SUB SWAP1 REVERT JUMPDEST PUSH1 0x5 DUP1 SLOAD PUSH1 0x0 SWAP1 SWAP2 SSTORE PUSH2 0x6CE PUSH1 0x1 PUSH1 0x1 PUSH1 0xA0 SHL SUB PUSH32 0x0 AND DUP4 DUP4 PUSH2 0x1B84 JUMP JUMPDEST DUP2 PUSH1 0x1 PUSH1 0x1 PUSH1 0xA0 SHL SUB AND PUSH32 0xC0819C13BE868895EB93E40EACEB96DE976442FA1D404E5C55F14BB65A8C489A DUP3 PUSH1 0x40 MLOAD PUSH2 0x709 SWAP2 DUP2 MSTORE PUSH1 0x20 ADD SWAP1 JUMP JUMPDEST PUSH1 0x40 MLOAD DUP1 SWAP2 SUB SWAP1 LOG2 POP POP JUMP JUMPDEST PUSH1 0x0 DUP4 PUSH1 0x0 DUP2 GT DUP1 ISZERO PUSH2 0x72A JUMPI POP PUSH1 0x6 SLOAD DUP2 GT ISZERO JUMPDEST PUSH2 0x746 JUMPI PUSH1 0x40 MLOAD PUSH3 0x461BCD PUSH1 0xE5 SHL DUP2 MSTORE PUSH1 0x4 ADD PUSH2 0x688 SWAP1 PUSH2 0x2797 JUMP JUMPDEST PUSH1 0x0 DUP2 DUP2 MSTORE PUSH1 0x7 PUSH1 0x20 MSTORE PUSH1 0x40 DUP2 KECCAK256 PUSH1 0x6 ADD SLOAD PUSH1 0xFF AND PUSH1 0x2 DUP2 GT ISZERO PUSH2 0x76C JUMPI PUSH2 0x76C PUSH2 0x2647 JUMP JUMPDEST EQ PUSH2 0x789 JUMPI PUSH1 0x40 MLOAD PUSH3 0x461BCD PUSH1 0xE5 SHL DUP2 MSTORE PUSH1 0x4 ADD PUSH2 0x688 SWAP1 PUSH2 0x27BF JUMP JUMPDEST PUSH1 0x0 DUP2 DUP2 MSTORE PUSH1 0x7 PUSH1 0x20 MSTORE PUSH1 0x40 SWAP1 KECCAK256 PUSH1 0x2 ADD SLOAD TIMESTAMP LT PUSH2 0x7B9 JUMPI PUSH1 0x40 MLOAD PUSH3 0x461BCD PUSH1 0xE5 SHL DUP2 MSTORE PUSH1 0x4 ADD PUSH2 0x688 SWAP1 PUSH2 0x27EA JUMP JUMPDEST PUSH2 0x7C1 PUSH2 0x1BE8 JUMP JUMPDEST PUSH2 0x7C9 PUSH2 0x1C0C JUMP JUMPDEST PUSH2 0x7D6 DUP6 PUSH1 0x2 DUP7 DUP7 PUSH2 0x1C36 JUMP JUMPDEST SWAP2 POP PUSH2 0x7E1 PUSH1 0x1 DUP1 SSTORE JUMP JUMPDEST POP SWAP4 SWAP3 POP POP POP JUMP JUMPDEST PUSH2 0x7F1 PUSH2 0x1B57 JUMP JUMPDEST PUSH1 0x1 PUSH1 0x1 PUSH1 0xA0 SHL SUB DUP3 AND PUSH1 0x0 DUP2 DUP2 MSTORE PUSH1 0xB PUSH1 0x20 SWAP1 DUP2 MSTORE PUSH1 0x40 SWAP2 DUP3 SWAP1 KECCAK256 DUP1 SLOAD PUSH1 0xFF NOT AND DUP6 ISZERO ISZERO SWAP1 DUP2 OR SWAP1 SWAP2 SSTORE SWAP2 MLOAD SWAP2 DUP3 MSTORE PUSH32 0xD8EA402E95478FEEE1BEA3F652C970C98C456281AE29A9987918E9E8B6754BB4 SWAP2 ADD PUSH2 0x709 JUMP JUMPDEST PUSH2 0x851 PUSH2 0x1B57 JUMP JUMPDEST PUSH2 0x859 PUSH2 0x1FCF JUMP JUMPDEST JUMP JUMPDEST PUSH1 0x0 DUP4 DUP2 MSTORE PUSH1 0x7 PUSH1 0x20 MSTORE PUSH1 0x40 DUP2 KECCAK256 DUP2 SWAP1 PUSH1 0x1 DUP6 PUSH1 0x2 DUP2 GT ISZERO PUSH2 0x87F JUMPI PUSH2 0x87F PUSH2 0x2647 JUMP JUMPDEST SUB PUSH2 0x8FE JUMPI PUSH1 0x0 DUP2 PUSH1 0x4 ADD SLOAD DUP3 PUSH1 0x3 ADD SLOAD PUSH2 0x89A SWAP2 SWAP1 PUSH2 0x2828 JUMP JUMPDEST SWAP1 POP PUSH1 0x0 DUP6 DUP4 PUSH1 0x3 ADD SLOAD PUSH2 0x8AE SWAP2 SWAP1 PUSH2 0x2845 JUMP JUMPDEST SWAP1 POP PUSH1 0x0 PUSH2 0x8BC DUP3 DUP5 PUSH2 0x2858 JUMP JUMPDEST DUP5 PUSH1 0x4 ADD SLOAD PUSH2 0x8CB SWAP2 SWAP1 PUSH2 0x287A JUMP JUMPDEST SWAP1 POP PUSH2 0x2710 PUSH1 0x3 SLOAD DUP3 PUSH2 0x8DE SWAP2 SWAP1 PUSH2 0x2828 JUMP JUMPDEST PUSH2 0x8E8 SWAP2 SWAP1 PUSH2 0x2858 JUMP JUMPDEST SWAP5 POP PUSH2 0x8F4 DUP6 DUP3 PUSH2 0x287A JUMP JUMPDEST SWAP6 POP POP POP POP PUSH2 0x974 JUMP JUMPDEST PUSH1 0x0 DUP2 PUSH1 0x4 ADD SLOAD DUP3 PUSH1 0x3 ADD SLOAD PUSH2 0x914 SWAP2 SWAP1 PUSH2 0x2828 JUMP JUMPDEST SWAP1 POP PUSH1 0x0 DUP6 DUP4 PUSH1 0x4 ADD SLOAD PUSH2 0x928 SWAP2 SWAP1 PUSH2 0x2845 JUMP JUMPDEST SWAP1 POP PUSH1 0x0 PUSH2 0x936 DUP3 DUP5 PUSH2 0x2858 JUMP JUMPDEST DUP5 PUSH1 0x3 ADD SLOAD PUSH2 0x945 SWAP2 SWAP1 PUSH2 0x287A JUMP JUMPDEST SWAP1 POP PUSH2 0x2710 PUSH1 0x3 SLOAD DUP3 PUSH2 0x958 SWAP2 SWAP1 PUSH2 0x2828 JUMP JUMPDEST PUSH2 0x962 SWAP2 SWAP1 PUSH2 0x2858 JUMP JUMPDEST SWAP5 POP PUSH2 0x96E DUP6 DUP3 PUSH2 0x287A JUMP JUMPDEST SWAP6 POP POP POP POP JUMPDEST POP SWAP4 POP SWAP4 SWAP2 POP POP JUMP JUMPDEST PUSH2 0x985 PUSH2 0x1C0C JUMP JUMPDEST PUSH1 0x0 DUP2 GT DUP1 ISZERO PUSH2 0x997 JUMPI POP PUSH1 0x6 SLOAD DUP2 GT ISZERO JUMPDEST PUSH2 0x9B3 JUMPI PUSH1 0x40 MLOAD PUSH3 0x461BCD PUSH1 0xE5 SHL DUP2 MSTORE PUSH1 0x4 ADD PUSH2 0x688 SWAP1 PUSH2 0x2797 JUMP JUMPDEST PUSH1 0x0 DUP2 DUP2 MSTORE PUSH1 0x7 PUSH1 0x20 MSTORE PUSH1 0x40 SWAP1 KECCAK256 PUSH1 0x2 PUSH1 0x6 DUP3 ADD SLOAD PUSH1 0xFF AND PUSH1 0x2 DUP2 GT ISZERO PUSH2 0x9DC JUMPI PUSH2 0x9DC PUSH2 0x2647 JUMP JUMPDEST EQ PUSH2 0xA19 JUMPI PUSH1 0x40 MLOAD PUSH3 0x461BCD PUSH1 0xE5 SHL DUP2 MSTORE PUSH1 0x20 PUSH1 0x4 DUP3 ADD MSTORE PUSH1 0xD PUSH1 0x24 DUP3 ADD MSTORE PUSH13 0x139BDD0818D85B98D95B1B1959 PUSH1 0x9A SHL PUSH1 0x44 DUP3 ADD MSTORE PUSH1 0x64 ADD PUSH2 0x688 JUMP JUMPDEST PUSH1 0x0 DUP3 DUP2 MSTORE PUSH1 0xA PUSH1 0x20 SWAP1 DUP2 MSTORE PUSH1 0x40 DUP1 DUP4 KECCAK256 CALLER DUP5 MSTORE SWAP1 SWAP2 MSTORE SWAP1 KECCAK256 SLOAD PUSH1 0xFF AND ISZERO PUSH2 0xA75 JUMPI PUSH1 0x40 MLOAD PUSH3 0x461BCD PUSH1 0xE5 SHL DUP2 MSTORE PUSH1 0x20 PUSH1 0x4 DUP3 ADD MSTORE PUSH1 0xF PUSH1 0x24 DUP3 ADD MSTORE PUSH15 0x105B1C9958591E4818DB185A5B5959 PUSH1 0x8A SHL PUSH1 0x44 DUP3 ADD MSTORE PUSH1 0x64 ADD PUSH2 0x688 JUMP JUMPDEST PUSH1 0x0 DUP3 DUP2 MSTORE PUSH1 0x8 PUSH1 0x20 SWAP1 DUP2 MSTORE PUSH1 0x40 DUP1 DUP4 KECCAK256 CALLER DUP1 DUP6 MSTORE SWAP1 DUP4 MSTORE DUP2 DUP5 KECCAK256 SLOAD DUP7 DUP6 MSTORE PUSH1 0x9 DUP5 MSTORE DUP3 DUP6 KECCAK256 SWAP2 DUP6 MSTORE SWAP3 MSTORE DUP3 KECCAK256 SLOAD SWAP1 SWAP2 PUSH2 0xAAF DUP3 DUP5 PUSH2 0x2845 JUMP JUMPDEST SWAP1 POP PUSH1 0x0 DUP2 GT PUSH2 0xAF7 JUMPI PUSH1 0x40 MLOAD PUSH3 0x461BCD PUSH1 0xE5 SHL DUP2 MSTORE PUSH1 0x20 PUSH1 0x4 DUP3 ADD MSTORE PUSH1 0x13 PUSH1 0x24 DUP3 ADD MSTORE PUSH19 0x139BC81CDA185C995CC81D1BC81C99599D5B99 PUSH1 0x6A SHL PUSH1 0x44 DUP3 ADD MSTORE PUSH1 0x64 ADD PUSH2 0x688 JUMP JUMPDEST PUSH1 0x0 DUP3 DUP5 LT PUSH2 0xB06 JUMPI DUP3 PUSH2 0xB08 JUMP JUMPDEST DUP4 JUMPDEST SWAP1 POP PUSH1 0x0 PUSH2 0xB17 DUP3 PUSH1 0x2 PUSH2 0x2828 JUMP JUMPDEST PUSH2 0xB21 SWAP1 DUP5 PUSH2 0x287A JUMP JUMPDEST SWAP1 POP PUSH1 0x0 PUSH2 0xB30 PUSH1 0x2 DUP4 PUSH2 0x2858 JUMP JUMPDEST PUSH2 0xB3A SWAP1 DUP5 PUSH2 0x2845 JUMP JUMPDEST PUSH1 0x0 DUP10 DUP2 MSTORE PUSH1 0xA PUSH1 0x20 SWAP1 DUP2 MSTORE PUSH1 0x40 DUP1 DUP4 KECCAK256 CALLER DUP5 MSTORE SWAP1 SWAP2 MSTORE SWAP1 KECCAK256 DUP1 SLOAD PUSH1 0xFF NOT AND PUSH1 0x1 OR SWAP1 SSTORE SWAP1 POP DUP1 ISZERO PUSH2 0xB9A JUMPI PUSH2 0xB9A PUSH1 0x1 PUSH1 0x1 PUSH1 0xA0 SHL SUB PUSH32 0x0 AND CALLER DUP4 PUSH2 0x1B84 JUMP JUMPDEST PUSH1 0x40 MLOAD DUP2 DUP2 MSTORE CALLER SWAP1 DUP10 SWAP1 PUSH32 0xF3F402280EF0A7905E124AA621B65EAEB2725C343E8B36D398ED78C29DAF285C SWAP1 PUSH1 0x20 ADD PUSH1 0x40 MLOAD DUP1 SWAP2 SUB SWAP1 LOG3 POP POP POP POP POP POP POP PUSH2 0xBE1 PUSH1 0x1 DUP1 SSTORE JUMP JUMPDEST POP JUMP JUMPDEST PUSH2 0xBEC PUSH2 0x1C0C JUMP JUMPDEST PUSH1 0x0 DUP2 GT DUP1 ISZERO PUSH2 0xBFE JUMPI POP PUSH1 0x6 SLOAD DUP2 GT ISZERO JUMPDEST PUSH2 0xC1A JUMPI PUSH1 0x40 MLOAD PUSH3 0x461BCD PUSH1 0xE5 SHL DUP2 MSTORE PUSH1 0x4 ADD PUSH2 0x688 SWAP1 PUSH2 0x2797 JUMP JUMPDEST PUSH1 0x0 DUP2 DUP2 MSTORE PUSH1 0x7 PUSH1 0x20 MSTORE PUSH1 0x40 SWAP1 KECCAK256 PUSH1 0x1 PUSH1 0x6 DUP3 ADD SLOAD PUSH1 0xFF AND PUSH1 0x2 DUP2 GT ISZERO PUSH2 0xC43 JUMPI PUSH2 0xC43 PUSH2 0x2647 JUMP JUMPDEST EQ PUSH2 0xC7F JUMPI PUSH1 0x40 MLOAD PUSH3 0x461BCD PUSH1 0xE5 SHL DUP2 MSTORE PUSH1 0x20 PUSH1 0x4 DUP3 ADD MSTORE PUSH1 0xC PUSH1 0x24 DUP3 ADD MSTORE PUSH12 0x139BDD081C995CDBDB1D9959 PUSH1 0xA2 SHL PUSH1 0x44 DUP3 ADD MSTORE PUSH1 0x64 ADD PUSH2 0x688 JUMP JUMPDEST PUSH1 0x0 DUP3 DUP2 MSTORE PUSH1 0xA PUSH1 0x20 SWAP1 DUP2 MSTORE PUSH1 0x40 DUP1 DUP4 KECCAK256 CALLER DUP5 MSTORE SWAP1 SWAP2 MSTORE SWAP1 KECCAK256 SLOAD PUSH1 0xFF AND ISZERO PUSH2 0xCDB JUMPI PUSH1 0x40 MLOAD PUSH3 0x461BCD PUSH1 0xE5 SHL DUP2 MSTORE PUSH1 0x20 PUSH1 0x4 DUP3 ADD MSTORE PUSH1 0xF PUSH1 0x24 DUP3 ADD MSTORE PUSH15 0x105B1C9958591E4818DB185A5B5959 PUSH1 0x8A SHL PUSH1 0x44 DUP3 ADD MSTORE PUSH1 0x64 ADD PUSH2 0x688 JUMP JUMPDEST PUSH1 0x0 PUSH1 0x1 PUSH1 0x6 DUP4 ADD SLOAD PUSH2 0x100 SWAP1 DIV PUSH1 0xFF AND PUSH1 0x2 DUP2 GT ISZERO PUSH2 0xCFD JUMPI PUSH2 0xCFD PUSH2 0x2647 JUMP JUMPDEST SUB PUSH2 0xD22 JUMPI POP PUSH1 0x0 DUP3 DUP2 MSTORE PUSH1 0x8 PUSH1 0x20 SWAP1 DUP2 MSTORE PUSH1 0x40 DUP1 DUP4 KECCAK256 CALLER DUP5 MSTORE SWAP1 SWAP2 MSTORE SWAP1 KECCAK256 SLOAD PUSH2 0xD3E JUMP JUMPDEST POP PUSH1 0x0 DUP3 DUP2 MSTORE PUSH1 0x9 PUSH1 0x20 SWAP1 DUP2 MSTORE PUSH1 0x40 DUP1 DUP4 KECCAK256 CALLER DUP5 MSTORE SWAP1 SWAP2 MSTORE SWAP1 KECCAK256 SLOAD JUMPDEST PUSH1 0x0 DUP2 GT PUSH2 0xD82 JUMPI PUSH1 0x40 MLOAD PUSH3 0x461BCD PUSH1 0xE5 SHL DUP2 MSTORE PUSH1 0x20 PUSH1 0x4 DUP3 ADD MSTORE PUSH1 0x11 PUSH1 0x24 DUP3 ADD MSTORE PUSH17 0x4E6F2077696E6E696E6720736861726573 PUSH1 0x78 SHL PUSH1 0x44 DUP3 ADD MSTORE PUSH1 0x64 ADD PUSH2 0x688 JUMP JUMPDEST PUSH1 0x0 DUP4 DUP2 MSTORE PUSH1 0xA PUSH1 0x20 SWAP1 DUP2 MSTORE PUSH1 0x40 DUP1 DUP4 KECCAK256 CALLER DUP1 DUP6 MSTORE SWAP3 MSTORE SWAP1 SWAP2 KECCAK256 DUP1 SLOAD PUSH1 0xFF NOT AND PUSH1 0x1 OR SWAP1 SSTORE PUSH2 0xDDC SWAP1 PUSH32 0x0 PUSH1 0x1 PUSH1 0x1 PUSH1 0xA0 SHL SUB AND SWAP1 DUP4 PUSH2 0x1B84 JUMP JUMPDEST PUSH1 0x40 MLOAD DUP2 DUP2 MSTORE CALLER SWAP1 DUP5 SWAP1 PUSH32 0x5380CF6FE903B40C6D5A9E0DFBCA2F3A423F0A21520B4D5947ED5169BDBA946D SWAP1 PUSH1 0x20 ADD PUSH1 0x40 MLOAD DUP1 SWAP2 SUB SWAP1 LOG3 POP POP PUSH2 0xBE1 PUSH1 0x1 DUP1 SSTORE JUMP JUMPDEST PUSH2 0xE26 PUSH2 0x1B57 JUMP JUMPDEST PUSH2 0x859 PUSH1 0x0 PUSH2 0x2021 JUMP JUMPDEST PUSH1 0x0 DUP2 DUP2 MSTORE PUSH1 0x7 PUSH1 0x20 MSTORE PUSH1 0x40 DUP2 KECCAK256 DUP3 SWAP2 PUSH2 0xE52 PUSH1 0x0 SLOAD PUSH1 0x1 PUSH1 0x1 PUSH1 0xA0 SHL SUB AND SWAP1 JUMP JUMPDEST PUSH1 0x1 PUSH1 0x1 PUSH1 0xA0 SHL SUB AND CALLER PUSH1 0x1 PUSH1 0x1 PUSH1 0xA0 SHL SUB AND EQ DUP1 PUSH2 0xE80 JUMPI POP CALLER PUSH1 0x0 SWAP1 DUP2 MSTORE PUSH1 0xB PUSH1 0x20 MSTORE PUSH1 0x40 SWAP1 KECCAK256 SLOAD PUSH1 0xFF AND JUMPDEST DUP1 PUSH2 0xEAE JUMPI POP PUSH1 0x7 DUP3 ADD SLOAD PUSH1 0x1 PUSH1 0x1 PUSH1 0xA0 SHL SUB AND ISZERO DUP1 ISZERO SWAP1 PUSH2 0xEAE JUMPI POP PUSH1 0x7 DUP3 ADD SLOAD PUSH1 0x1 PUSH1 0x1 PUSH1 0xA0 SHL SUB AND CALLER EQ JUMPDEST SWAP1 POP DUP1 PUSH2 0xEF9 JUMPI PUSH1 0x40 MLOAD PUSH3 0x461BCD PUSH1 0xE5 SHL DUP2 MSTORE PUSH1 0x20 PUSH1 0x4 DUP3 ADD MSTORE PUSH1 0x19 PUSH1 0x24 DUP3 ADD MSTORE PUSH25 0x4E6F7420617574686F72697A656420746F207265736F6C7665 PUSH1 0x38 SHL PUSH1 0x44 DUP3 ADD MSTORE PUSH1 0x64 ADD PUSH2 0x688 JUMP JUMPDEST PUSH2 0xF01 PUSH2 0x1BE8 JUMP JUMPDEST PUSH1 0x0 DUP5 GT DUP1 ISZERO PUSH2 0xF13 JUMPI POP PUSH1 0x6 SLOAD DUP5 GT ISZERO JUMPDEST PUSH2 0xF2F JUMPI PUSH1 0x40 MLOAD PUSH3 0x461BCD PUSH1 0xE5 SHL DUP2 MSTORE PUSH1 0x4 ADD PUSH2 0x688 SWAP1 PUSH2 0x2797 JUMP JUMPDEST PUSH1 0x0 DUP5 DUP2 MSTORE PUSH1 0x7 PUSH1 0x20 MSTORE PUSH1 0x40 DUP2 KECCAK256 SWAP1 PUSH1 0x6 DUP3 ADD SLOAD PUSH1 0xFF AND PUSH1 0x2 DUP2 GT ISZERO PUSH2 0xF57 JUMPI PUSH2 0xF57 PUSH2 0x2647 JUMP JUMPDEST EQ PUSH2 0xF91 JUMPI PUSH1 0x40 MLOAD PUSH3 0x461BCD PUSH1 0xE5 SHL DUP2 MSTORE PUSH1 0x20 PUSH1 0x4 DUP3 ADD MSTORE PUSH1 0xA PUSH1 0x24 DUP3 ADD MSTORE PUSH10 0x4E6F7420616374697665 PUSH1 0xB0 SHL PUSH1 0x44 DUP3 ADD MSTORE PUSH1 0x64 ADD PUSH2 0x688 JUMP JUMPDEST PUSH1 0x6 DUP2 ADD DUP1 SLOAD PUSH1 0xFF NOT AND PUSH1 0x2 OR SWAP1 SSTORE PUSH1 0x40 MLOAD CALLER SWAP1 DUP7 SWAP1 PUSH32 0x80CBE856A464968C63953AEB2DD84C12DE3A0715985CAE2EA35D3ED87E39DDC3 SWAP1 PUSH1 0x0 SWAP1 LOG3 POP POP POP POP POP JUMP JUMPDEST PUSH1 0x0 PUSH2 0xFDE PUSH2 0x1BE8 JUMP JUMPDEST PUSH2 0xFE6 PUSH2 0x1C0C JUMP JUMPDEST DUP5 PUSH2 0x1024 JUMPI PUSH1 0x40 MLOAD PUSH3 0x461BCD PUSH1 0xE5 SHL DUP2 MSTORE PUSH1 0x20 PUSH1 0x4 DUP3 ADD MSTORE PUSH1 0xE PUSH1 0x24 DUP3 ADD MSTORE PUSH14 0x22B6B83A3C9038BAB2B9BA34B7B7 PUSH1 0x91 SHL PUSH1 0x44 DUP3 ADD MSTORE PUSH1 0x64 ADD PUSH2 0x688 JUMP JUMPDEST TIMESTAMP DUP5 GT PUSH2 0x1073 JUMPI PUSH1 0x40 MLOAD PUSH3 0x461BCD PUSH1 0xE5 SHL DUP2 MSTORE PUSH1 0x20 PUSH1 0x4 DUP3 ADD MSTORE PUSH1 0x1B PUSH1 0x24 DUP3 ADD MSTORE PUSH32 0x5265736F6C76652074696D65206D757374206265206675747572650000000000 PUSH1 0x44 DUP3 ADD MSTORE PUSH1 0x64 ADD PUSH2 0x688 JUMP JUMPDEST PUSH2 0x3E8 DUP4 LT ISZERO PUSH2 0x10B9 JUMPI PUSH1 0x40 MLOAD PUSH3 0x461BCD PUSH1 0xE5 SHL DUP2 MSTORE PUSH1 0x20 PUSH1 0x4 DUP3 ADD MSTORE PUSH1 0x11 PUSH1 0x24 DUP3 ADD MSTORE PUSH17 0x4C697175696469747920746F6F206C6F77 PUSH1 0x78 SHL PUSH1 0x44 DUP3 ADD MSTORE PUSH1 0x64 ADD PUSH2 0x688 JUMP JUMPDEST PUSH1 0x0 PUSH1 0x4 SLOAD DUP5 PUSH2 0x10C9 SWAP2 SWAP1 PUSH2 0x2845 JUMP JUMPDEST SWAP1 POP PUSH2 0x1100 PUSH1 0x1 PUSH1 0x1 PUSH1 0xA0 SHL SUB PUSH32 0x0 AND CALLER ADDRESS DUP5 PUSH2 0x2071 JUMP JUMPDEST PUSH1 0x4 SLOAD PUSH1 0x5 PUSH1 0x0 DUP3 DUP3 SLOAD PUSH2 0x1114 SWAP2 SWAP1 PUSH2 0x2845 JUMP JUMPDEST SWAP1 SWAP2 SSTORE POP POP PUSH1 0x6 DUP1 SLOAD SWAP1 PUSH1 0x0 PUSH2 0x1129 DUP4 PUSH2 0x288D JUMP JUMPDEST SWAP1 SWAP2 SSTORE POP POP PUSH1 0x6 SLOAD PUSH1 0x0 DUP2 DUP2 MSTORE PUSH1 0x7 PUSH1 0x20 MSTORE PUSH1 0x40 SWAP1 KECCAK256 DUP2 DUP2 SSTORE PUSH1 0x1 DUP2 ADD PUSH2 0x1151 DUP10 DUP12 DUP4 PUSH2 0x2944 JUMP JUMPDEST POP PUSH1 0x2 DUP2 ADD DUP8 SWAP1 SSTORE PUSH1 0x3 DUP2 ADD DUP7 SWAP1 SSTORE PUSH1 0x4 DUP2 ADD DUP7 SWAP1 SSTORE PUSH1 0x0 PUSH1 0x5 DUP3 ADD SSTORE PUSH1 0x6 DUP2 ADD DUP1 SLOAD PUSH1 0x1 PUSH1 0x1 PUSH1 0xB0 SHL SUB NOT AND CALLER PUSH3 0x10000 DUP2 MUL SWAP2 SWAP1 SWAP2 OR SWAP1 SWAP2 SSTORE PUSH1 0x7 DUP3 ADD DUP1 SLOAD PUSH1 0x1 PUSH1 0x1 PUSH1 0xA0 SHL SUB NOT AND PUSH1 0x1 PUSH1 0x1 PUSH1 0xA0 SHL SUB DUP9 AND OR SWAP1 SSTORE TIMESTAMP PUSH1 0x8 DUP4 ADD SSTORE PUSH1 0x40 MLOAD DUP4 SWAP1 PUSH32 0xEA87AED8CCA8119DB150B8FA32C1F5AF47939CD58980D0C2752140B47E21048 SWAP1 PUSH2 0x11E7 SWAP1 DUP14 SWAP1 DUP14 SWAP1 DUP14 SWAP1 DUP14 SWAP1 PUSH2 0x2A05 JUMP JUMPDEST PUSH1 0x40 MLOAD DUP1 SWAP2 SUB SWAP1 LOG3 POP SWAP2 POP POP PUSH2 0x11FC PUSH1 0x1 DUP1 SSTORE JUMP JUMPDEST SWAP6 SWAP5 POP POP POP POP POP JUMP JUMPDEST PUSH2 0x120D PUSH2 0x1B57 JUMP JUMPDEST PUSH2 0x859 PUSH2 0x20B0 JUMP JUMPDEST PUSH1 0x0 DUP2 DUP2 MSTORE PUSH1 0x7 PUSH1 0x20 MSTORE PUSH1 0x40 DUP2 KECCAK256 PUSH1 0x4 DUP2 ADD SLOAD PUSH1 0x3 DUP3 ADD SLOAD PUSH2 0x1237 SWAP2 SWAP1 PUSH2 0x2845 JUMP JUMPDEST PUSH1 0x0 SUB PUSH2 0x1258 JUMPI PUSH2 0x1251 PUSH1 0x2 PUSH8 0xDE0B6B3A7640000 PUSH2 0x2858 JUMP JUMPDEST SWAP4 SWAP3 POP POP POP JUMP JUMPDEST DUP1 PUSH1 0x4 ADD SLOAD DUP2 PUSH1 0x3 ADD SLOAD PUSH2 0x126C SWAP2 SWAP1 PUSH2 0x2845 JUMP JUMPDEST PUSH8 0xDE0B6B3A7640000 DUP3 PUSH1 0x4 ADD SLOAD PUSH2 0x1284 SWAP2 SWAP1 PUSH2 0x2828 JUMP JUMPDEST PUSH2 0x1251 SWAP2 SWAP1 PUSH2 0x2858 JUMP JUMPDEST PUSH2 0x1296 PUSH2 0x1B57 JUMP JUMPDEST PUSH2 0x3E8 DUP2 GT ISZERO PUSH2 0x12D7 JUMPI PUSH1 0x40 MLOAD PUSH3 0x461BCD PUSH1 0xE5 SHL DUP2 MSTORE PUSH1 0x20 PUSH1 0x4 DUP3 ADD MSTORE PUSH1 0xC PUSH1 0x24 DUP3 ADD MSTORE PUSH12 0x8CCACA40E8DEDE40D0D2CED PUSH1 0xA3 SHL PUSH1 0x44 DUP3 ADD MSTORE PUSH1 0x64 ADD PUSH2 0x688 JUMP JUMPDEST PUSH1 0x3 SLOAD PUSH1 0x40 DUP1 MLOAD SWAP2 DUP3 MSTORE PUSH1 0x20 DUP3 ADD DUP4 SWAP1 MSTORE PUSH32 0x48CED0CBFD080780177282231C1BCF4B2E117BA3C76F5081B3DBAB6DC6E1E1B SWAP2 ADD PUSH1 0x40 MLOAD DUP1 SWAP2 SUB SWAP1 LOG1 PUSH1 0x3 SSTORE JUMP JUMPDEST PUSH1 0x7 PUSH1 0x20 MSTORE PUSH1 0x0 SWAP1 DUP2 MSTORE PUSH1 0x40 SWAP1 KECCAK256 DUP1 SLOAD PUSH1 0x1 DUP3 ADD DUP1 SLOAD SWAP2 SWAP3 SWAP2 PUSH2 0x133A SWAP1 PUSH2 0x28BC JUMP JUMPDEST DUP1 PUSH1 0x1F ADD PUSH1 0x20 DUP1 SWAP2 DIV MUL PUSH1 0x20 ADD PUSH1 0x40 MLOAD SWAP1 DUP2 ADD PUSH1 0x40 MSTORE DUP1 SWAP3 SWAP2 SWAP1 DUP2 DUP2 MSTORE PUSH1 0x20 ADD DUP3 DUP1 SLOAD PUSH2 0x1366 SWAP1 PUSH2 0x28BC JUMP JUMPDEST DUP1 ISZERO PUSH2 0x13B3 JUMPI DUP1 PUSH1 0x1F LT PUSH2 0x1388 JUMPI PUSH2 0x100 DUP1 DUP4 SLOAD DIV MUL DUP4 MSTORE SWAP2 PUSH1 0x20 ADD SWAP2 PUSH2 0x13B3 JUMP JUMPDEST DUP3 ADD SWAP2 SWAP1 PUSH1 0x0 MSTORE PUSH1 0x20 PUSH1 0x0 KECCAK256 SWAP1 JUMPDEST DUP2 SLOAD DUP2 MSTORE SWAP1 PUSH1 0x1 ADD SWAP1 PUSH1 0x20 ADD DUP1 DUP4 GT PUSH2 0x1396 JUMPI DUP3 SWAP1 SUB PUSH1 0x1F AND DUP3 ADD SWAP2 JUMPDEST POP POP POP PUSH1 0x2 DUP5 ADD SLOAD PUSH1 0x3 DUP6 ADD SLOAD PUSH1 0x4 DUP7 ADD SLOAD PUSH1 0x5 DUP8 ADD SLOAD PUSH1 0x6 DUP9 ADD SLOAD PUSH1 0x7 DUP10 ADD SLOAD PUSH1 0x8 SWAP1 SWAP10 ADD SLOAD SWAP8 SWAP9 SWAP5 SWAP8 SWAP4 SWAP7 POP SWAP2 SWAP5 POP SWAP3 PUSH1 0xFF DUP1 DUP4 AND SWAP4 PUSH2 0x100 DUP5 DIV SWAP1 SWAP2 AND SWAP3 PUSH1 0x1 PUSH1 0x1 PUSH1 0xA0 SHL SUB PUSH3 0x10000 SWAP1 SWAP2 DIV DUP2 AND SWAP3 AND SWAP1 DUP12 JUMP JUMPDEST PUSH1 0x0 DUP4 DUP2 MSTORE PUSH1 0x7 PUSH1 0x20 MSTORE PUSH1 0x40 DUP2 KECCAK256 PUSH1 0x3 SLOAD DUP3 SWAP2 SWAP1 PUSH2 0x2710 SWAP1 PUSH2 0x142D SWAP1 DUP7 PUSH2 0x2828 JUMP JUMPDEST PUSH2 0x1437 SWAP2 SWAP1 PUSH2 0x2858 JUMP JUMPDEST SWAP2 POP PUSH1 0x0 PUSH2 0x1445 DUP4 DUP7 PUSH2 0x287A JUMP JUMPDEST SWAP1 POP PUSH1 0x1 DUP7 PUSH1 0x2 DUP2 GT ISZERO PUSH2 0x145B JUMPI PUSH2 0x145B PUSH2 0x2647 JUMP JUMPDEST SUB PUSH2 0x14AE JUMPI PUSH1 0x0 DUP3 PUSH1 0x4 ADD SLOAD DUP4 PUSH1 0x3 ADD SLOAD PUSH2 0x1476 SWAP2 SWAP1 PUSH2 0x2828 JUMP JUMPDEST SWAP1 POP PUSH1 0x0 DUP3 DUP5 PUSH1 0x4 ADD SLOAD PUSH2 0x148A SWAP2 SWAP1 PUSH2 0x2845 JUMP JUMPDEST SWAP1 POP PUSH2 0x1496 DUP2 DUP4 PUSH2 0x2858 JUMP JUMPDEST DUP5 PUSH1 0x3 ADD SLOAD PUSH2 0x14A5 SWAP2 SWAP1 PUSH2 0x287A JUMP JUMPDEST SWAP6 POP POP POP PUSH2 0x14F3 JUMP JUMPDEST PUSH1 0x0 DUP3 PUSH1 0x4 ADD SLOAD DUP4 PUSH1 0x3 ADD SLOAD PUSH2 0x14C4 SWAP2 SWAP1 PUSH2 0x2828 JUMP JUMPDEST SWAP1 POP PUSH1 0x0 DUP3 DUP5 PUSH1 0x3 ADD SLOAD PUSH2 0x14D8 SWAP2 SWAP1 PUSH2 0x2845 JUMP JUMPDEST SWAP1 POP PUSH2 0x14E4 DUP2 DUP4 PUSH2 0x2858 JUMP JUMPDEST DUP5 PUSH1 0x4 ADD SLOAD PUSH2 0x96E SWAP2 SWAP1 PUSH2 0x287A JUMP JUMPDEST POP POP SWAP4 POP SWAP4 SWAP2 POP POP JUMP JUMPDEST PUSH2 0x1505 PUSH2 0x1B57 JUMP JUMPDEST PUSH1 0x4 SSTORE JUMP JUMPDEST PUSH1 0x0 DUP2 DUP2 MSTORE PUSH1 0x7 PUSH1 0x20 MSTORE PUSH1 0x40 DUP2 KECCAK256 PUSH1 0x4 DUP2 ADD SLOAD PUSH1 0x3 DUP3 ADD SLOAD PUSH2 0x152C SWAP2 SWAP1 PUSH2 0x2845 JUMP JUMPDEST PUSH1 0x0 SUB PUSH2 0x1546 JUMPI PUSH2 0x1251 PUSH1 0x2 PUSH8 0xDE0B6B3A7640000 PUSH2 0x2858 JUMP JUMPDEST DUP1 PUSH1 0x4 ADD SLOAD DUP2 PUSH1 0x3 ADD SLOAD PUSH2 0x155A SWAP2 SWAP1 PUSH2 0x2845 JUMP JUMPDEST PUSH8 0xDE0B6B3A7640000 DUP3 PUSH1 0x3 ADD SLOAD PUSH2 0x1284 SWAP2 SWAP1 PUSH2 0x2828 JUMP JUMPDEST PUSH1 0x0 DUP3 DUP2 MSTORE PUSH1 0x7 PUSH1 0x20 MSTORE PUSH1 0x40 DUP2 KECCAK256 DUP4 SWAP2 PUSH2 0x1594 PUSH1 0x0 SLOAD PUSH1 0x1 PUSH1 0x1 PUSH1 0xA0 SHL SUB AND SWAP1 JUMP JUMPDEST PUSH1 0x1 PUSH1 0x1 PUSH1 0xA0 SHL SUB AND CALLER PUSH1 0x1 PUSH1 0x1 PUSH1 0xA0 SHL SUB AND EQ DUP1 PUSH2 0x15C2 JUMPI POP CALLER PUSH1 0x0 SWAP1 DUP2 MSTORE PUSH1 0xB PUSH1 0x20 MSTORE PUSH1 0x40 SWAP1 KECCAK256 SLOAD PUSH1 0xFF AND JUMPDEST DUP1 PUSH2 0x15F0 JUMPI POP PUSH1 0x7 DUP3 ADD SLOAD PUSH1 0x1 PUSH1 0x1 PUSH1 0xA0 SHL SUB AND ISZERO DUP1 ISZERO SWAP1 PUSH2 0x15F0 JUMPI POP PUSH1 0x7 DUP3 ADD SLOAD PUSH1 0x1 PUSH1 0x1 PUSH1 0xA0 SHL SUB AND CALLER EQ JUMPDEST SWAP1 POP DUP1 PUSH2 0x163B JUMPI PUSH1 0x40 MLOAD PUSH3 0x461BCD PUSH1 0xE5 SHL DUP2 MSTORE PUSH1 0x20 PUSH1 0x4 DUP3 ADD MSTORE PUSH1 0x19 PUSH1 0x24 DUP3 ADD MSTORE PUSH25 0x4E6F7420617574686F72697A656420746F207265736F6C7665 PUSH1 0x38 SHL PUSH1 0x44 DUP3 ADD MSTORE PUSH1 0x64 ADD PUSH2 0x688 JUMP JUMPDEST PUSH2 0x1643 PUSH2 0x1BE8 JUMP JUMPDEST PUSH1 0x0 DUP6 GT DUP1 ISZERO PUSH2 0x1655 JUMPI POP PUSH1 0x6 SLOAD DUP6 GT ISZERO JUMPDEST PUSH2 0x1671 JUMPI PUSH1 0x40 MLOAD PUSH3 0x461BCD PUSH1 0xE5 SHL DUP2 MSTORE PUSH1 0x4 ADD PUSH2 0x688 SWAP1 PUSH2 0x2797 JUMP JUMPDEST PUSH1 0x0 DUP6 DUP2 MSTORE PUSH1 0x7 PUSH1 0x20 MSTORE PUSH1 0x40 DUP2 KECCAK256 SWAP1 PUSH1 0x6 DUP3 ADD SLOAD PUSH1 0xFF AND PUSH1 0x2 DUP2 GT ISZERO PUSH2 0x1699 JUMPI PUSH2 0x1699 PUSH2 0x2647 JUMP JUMPDEST EQ PUSH2 0x16D3 JUMPI PUSH1 0x40 MLOAD PUSH3 0x461BCD PUSH1 0xE5 SHL DUP2 MSTORE PUSH1 0x20 PUSH1 0x4 DUP3 ADD MSTORE PUSH1 0xA PUSH1 0x24 DUP3 ADD MSTORE PUSH10 0x4E6F7420616374697665 PUSH1 0xB0 SHL PUSH1 0x44 DUP3 ADD MSTORE PUSH1 0x64 ADD PUSH2 0x688 JUMP JUMPDEST PUSH1 0x1 DUP6 PUSH1 0x2 DUP2 GT ISZERO PUSH2 0x16E7 JUMPI PUSH2 0x16E7 PUSH2 0x2647 JUMP JUMPDEST EQ DUP1 PUSH2 0x1704 JUMPI POP PUSH1 0x2 DUP6 PUSH1 0x2 DUP2 GT ISZERO PUSH2 0x1702 JUMPI PUSH2 0x1702 PUSH2 0x2647 JUMP JUMPDEST EQ JUMPDEST PUSH2 0x1742 JUMPI PUSH1 0x40 MLOAD PUSH3 0x461BCD PUSH1 0xE5 SHL DUP2 MSTORE PUSH1 0x20 PUSH1 0x4 DUP3 ADD MSTORE PUSH1 0xF PUSH1 0x24 DUP3 ADD MSTORE PUSH15 0x496E76616C6964206F7574636F6D65 PUSH1 0x88 SHL PUSH1 0x44 DUP3 ADD MSTORE PUSH1 0x64 ADD PUSH2 0x688 JUMP JUMPDEST PUSH1 0x6 DUP2 ADD DUP1 SLOAD PUSH1 0x1 PUSH1 0xFF NOT DUP3 AND DUP2 OR DUP4 SSTORE DUP8 SWAP3 SWAP2 PUSH2 0xFFFF NOT AND OR PUSH2 0x100 DUP4 PUSH1 0x2 DUP2 GT ISZERO PUSH2 0x1771 JUMPI PUSH2 0x1771 PUSH2 0x2647 JUMP JUMPDEST MUL OR SWAP1 SSTORE POP CALLER PUSH1 0x1 PUSH1 0x1 PUSH1 0xA0 SHL SUB AND DUP7 PUSH32 0x13BFA3C09213A32E3E4E61FBACD90900CEC1E99511766660189122444FDEEC7D DUP8 PUSH1 0x40 MLOAD PUSH2 0x17B0 SWAP2 SWAP1 PUSH2 0x2A45 JUMP JUMPDEST PUSH1 0x40 MLOAD DUP1 SWAP2 SUB SWAP1 LOG3 POP POP POP POP POP POP JUMP JUMPDEST PUSH1 0x0 DUP4 PUSH1 0x0 DUP2 GT DUP1 ISZERO PUSH2 0x17D5 JUMPI POP PUSH1 0x6 SLOAD DUP2 GT ISZERO JUMPDEST PUSH2 0x17F1 JUMPI PUSH1 0x40 MLOAD PUSH3 0x461BCD PUSH1 0xE5 SHL DUP2 MSTORE PUSH1 0x4 ADD PUSH2 0x688 SWAP1 PUSH2 0x2797 JUMP JUMPDEST PUSH1 0x0 DUP2 DUP2 MSTORE PUSH1 0x7 PUSH1 0x20 MSTORE PUSH1 0x40 DUP2 KECCAK256 PUSH1 0x6 ADD SLOAD PUSH1 0xFF AND PUSH1 0x2 DUP2 GT ISZERO PUSH2 0x1817 JUMPI PUSH2 0x1817 PUSH2 0x2647 JUMP JUMPDEST EQ PUSH2 0x1834 JUMPI PUSH1 0x40 MLOAD PUSH3 0x461BCD PUSH1 0xE5 SHL DUP2 MSTORE PUSH1 0x4 ADD PUSH2 0x688 SWAP1 PUSH2 0x27BF JUMP JUMPDEST PUSH1 0x0 DUP2 DUP2 MSTORE PUSH1 0x7 PUSH1 0x20 MSTORE PUSH1 0x40 SWAP1 KECCAK256 PUSH1 0x2 ADD SLOAD TIMESTAMP LT PUSH2 0x1864 JUMPI PUSH1 0x40 MLOAD PUSH3 0x461BCD PUSH1 0xE5 SHL DUP2 MSTORE PUSH1 0x4 ADD PUSH2 0x688 SWAP1 PUSH2 0x27EA JUMP JUMPDEST PUSH2 0x186C PUSH2 0x1BE8 JUMP JUMPDEST PUSH2 0x1874 PUSH2 0x1C0C JUMP JUMPDEST PUSH2 0x7D6 DUP6 PUSH1 0x1 DUP7 DUP7 PUSH2 0x1C36 JUMP JUMPDEST PUSH1 0x0 DUP4 PUSH1 0x0 DUP2 GT DUP1 ISZERO PUSH2 0x1896 JUMPI POP PUSH1 0x6 SLOAD DUP2 GT ISZERO JUMPDEST PUSH2 0x18B2 JUMPI PUSH1 0x40 MLOAD PUSH3 0x461BCD PUSH1 0xE5 SHL DUP2 MSTORE PUSH1 0x4 ADD PUSH2 0x688 SWAP1 PUSH2 0x2797 JUMP JUMPDEST PUSH1 0x0 DUP2 DUP2 MSTORE PUSH1 0x7 PUSH1 0x20 MSTORE PUSH1 0x40 DUP2 KECCAK256 PUSH1 0x6 ADD SLOAD PUSH1 0xFF AND PUSH1 0x2 DUP2 GT ISZERO PUSH2 0x18D8 JUMPI PUSH2 0x18D8 PUSH2 0x2647 JUMP JUMPDEST EQ PUSH2 0x18F5 JUMPI PUSH1 0x40 MLOAD PUSH3 0x461BCD PUSH1 0xE5 SHL DUP2 MSTORE PUSH1 0x4 ADD PUSH2 0x688 SWAP1 PUSH2 0x27BF JUMP JUMPDEST PUSH1 0x0 DUP2 DUP2 MSTORE PUSH1 0x7 PUSH1 0x20 MSTORE PUSH1 0x40 SWAP1 KECCAK256 PUSH1 0x2 ADD SLOAD TIMESTAMP LT PUSH2 0x1925 JUMPI PUSH1 0x40 MLOAD PUSH3 0x461BCD PUSH1 0xE5 SHL DUP2 MSTORE PUSH1 0x4 ADD PUSH2 0x688 SWAP1 PUSH2 0x27EA JUMP JUMPDEST PUSH2 0x192D PUSH2 0x1BE8 JUMP JUMPDEST PUSH2 0x1935 PUSH2 0x1C0C JUMP JUMPDEST PUSH2 0x7D6 DUP6 PUSH1 0x2 DUP7 DUP7 PUSH2 0x20ED JUMP JUMPDEST PUSH1 0x0 DUP2 DUP2 MSTORE PUSH1 0x7 PUSH1 0x20 MSTORE PUSH1 0x40 DUP2 KECCAK256 DUP1 SLOAD PUSH1 0x2 DUP3 ADD SLOAD PUSH1 0x3 DUP4 ADD SLOAD PUSH1 0x4 DUP5 ADD SLOAD PUSH1 0x5 DUP6 ADD SLOAD PUSH1 0x6 DUP7 ADD SLOAD PUSH1 0x8 DUP8 ADD SLOAD PUSH1 0x1 DUP9 ADD DUP1 SLOAD PUSH1 0x60 SWAP10 DUP12 SWAP10 DUP11 SWAP10 DUP11 SWAP10 DUP11 SWAP10 DUP11 SWAP10 DUP11 SWAP10 DUP11 SWAP10 DUP11 SWAP10 SWAP8 SWAP9 SWAP7 SWAP8 SWAP7 PUSH1 0xFF DUP1 DUP5 AND SWAP4 PUSH2 0x100 DUP2 DIV SWAP1 SWAP2 AND SWAP3 PUSH3 0x10000 SWAP1 SWAP2 DIV PUSH1 0x1 PUSH1 0x1 PUSH1 0xA0 SHL SUB AND SWAP2 DUP10 SWAP1 PUSH2 0x19B9 SWAP1 PUSH2 0x28BC JUMP JUMPDEST DUP1 PUSH1 0x1F ADD PUSH1 0x20 DUP1 SWAP2 DIV MUL PUSH1 0x20 ADD PUSH1 0x40 MLOAD SWAP1 DUP2 ADD PUSH1 0x40 MSTORE DUP1 SWAP3 SWAP2 SWAP1 DUP2 DUP2 MSTORE PUSH1 0x20 ADD DUP3 DUP1 SLOAD PUSH2 0x19E5 SWAP1 PUSH2 0x28BC JUMP JUMPDEST DUP1 ISZERO PUSH2 0x1A32 JUMPI DUP1 PUSH1 0x1F LT PUSH2 0x1A07 JUMPI PUSH2 0x100 DUP1 DUP4 SLOAD DIV MUL DUP4 MSTORE SWAP2 PUSH1 0x20 ADD SWAP2 PUSH2 0x1A32 JUMP JUMPDEST DUP3 ADD SWAP2 SWAP1 PUSH1 0x0 MSTORE PUSH1 0x20 PUSH1 0x0 KECCAK256 SWAP1 JUMPDEST DUP2 SLOAD DUP2 MSTORE SWAP1 PUSH1 0x1 ADD SWAP1 PUSH1 0x20 ADD DUP1 DUP4 GT PUSH2 0x1A15 JUMPI DUP3 SWAP1 SUB PUSH1 0x1F AND DUP3 ADD SWAP2 JUMPDEST POP POP POP POP POP SWAP9 POP SWAP11 POP SWAP11 POP SWAP11 POP SWAP11 POP SWAP11 POP SWAP11 POP SWAP11 POP SWAP11 POP SWAP11 POP SWAP11 POP POP SWAP2 SWAP4 SWAP6 SWAP8 SWAP10 POP SWAP2 SWAP4 SWAP6 SWAP8 SWAP10 JUMP JUMPDEST PUSH2 0x1A63 PUSH2 0x1B57 JUMP JUMPDEST PUSH1 0x1 PUSH1 0x1 PUSH1 0xA0 SHL SUB DUP2 AND PUSH2 0x1A8D JUMPI PUSH1 0x40 MLOAD PUSH4 0x1E4FBDF7 PUSH1 0xE0 SHL DUP2 MSTORE PUSH1 0x0 PUSH1 0x4 DUP3 ADD MSTORE PUSH1 0x24 ADD PUSH2 0x688 JUMP JUMPDEST PUSH2 0xBE1 DUP2 PUSH2 0x2021 JUMP JUMPDEST PUSH1 0x0 DUP4 PUSH1 0x0 DUP2 GT DUP1 ISZERO PUSH2 0x1AAB JUMPI POP PUSH1 0x6 SLOAD DUP2 GT ISZERO JUMPDEST PUSH2 0x1AC7 JUMPI PUSH1 0x40 MLOAD PUSH3 0x461BCD PUSH1 0xE5 SHL DUP2 MSTORE PUSH1 0x4 ADD PUSH2 0x688 SWAP1 PUSH2 0x2797 JUMP JUMPDEST PUSH1 0x0 DUP2 DUP2 MSTORE PUSH1 0x7 PUSH1 0x20 MSTORE PUSH1 0x40 DUP2 KECCAK256 PUSH1 0x6 ADD SLOAD PUSH1 0xFF AND PUSH1 0x2 DUP2 GT ISZERO PUSH2 0x1AED JUMPI PUSH2 0x1AED PUSH2 0x2647 JUMP JUMPDEST EQ PUSH2 0x1B0A JUMPI PUSH1 0x40 MLOAD PUSH3 0x461BCD PUSH1 0xE5 SHL DUP2 MSTORE PUSH1 0x4 ADD PUSH2 0x688 SWAP1 PUSH2 0x27BF JUMP JUMPDEST PUSH1 0x0 DUP2 DUP2 MSTORE PUSH1 0x7 PUSH1 0x20 MSTORE PUSH1 0x40 SWAP1 KECCAK256 PUSH1 0x2 ADD SLOAD TIMESTAMP LT PUSH2 0x1B3A JUMPI PUSH1 0x40 MLOAD PUSH3 0x461BCD PUSH1 0xE5 SHL DUP2 MSTORE PUSH1 0x4 ADD PUSH2 0x688 SWAP1 PUSH2 0x27EA JUMP JUMPDEST PUSH2 0x1B42 PUSH2 0x1BE8 JUMP JUMPDEST PUSH2 0x1B4A PUSH2 0x1C0C JUMP JUMPDEST PUSH2 0x7D6 DUP6 PUSH1 0x1 DUP7 DUP7 PUSH2 0x20ED JUMP JUMPDEST PUSH1 0x0 SLOAD PUSH1 0x1 PUSH1 0x1 PUSH1 0xA0 SHL SUB AND CALLER EQ PUSH2 0x859 JUMPI PUSH1 0x40 MLOAD PUSH4 0x118CDAA7 PUSH1 0xE0 SHL DUP2 MSTORE CALLER PUSH1 0x4 DUP3 ADD MSTORE PUSH1 0x24 ADD PUSH2 0x688 JUMP JUMPDEST PUSH1 0x40 MLOAD PUSH1 0x1 PUSH1 0x1 PUSH1 0xA0 SHL SUB DUP4 DUP2 AND PUSH1 0x24 DUP4 ADD MSTORE PUSH1 0x44 DUP3 ADD DUP4 SWAP1 MSTORE PUSH2 0x1BE3 SWAP2 DUP6 SWAP2 DUP3 AND SWAP1 PUSH4 0xA9059CBB SWAP1 PUSH1 0x64 ADD JUMPDEST PUSH1 0x40 MLOAD PUSH1 0x20 DUP2 DUP4 SUB SUB DUP2 MSTORE SWAP1 PUSH1 0x40 MSTORE SWAP2 POP PUSH1 0xE0 SHL PUSH1 0x20 DUP3 ADD DUP1 MLOAD PUSH1 0x1 PUSH1 0x1 PUSH1 0xE0 SHL SUB DUP4 DUP2 DUP4 AND OR DUP4 MSTORE POP POP POP POP PUSH2 0x23B2 JUMP JUMPDEST POP POP POP JUMP JUMPDEST PUSH1 0x2 SLOAD PUSH1 0xFF AND ISZERO PUSH2 0x859 JUMPI PUSH1 0x40 MLOAD PUSH4 0xD93C0665 PUSH1 0xE0 SHL DUP2 MSTORE PUSH1 0x4 ADD PUSH1 0x40 MLOAD DUP1 SWAP2 SUB SWAP1 REVERT JUMPDEST PUSH1 0x2 PUSH1 0x1 SLOAD SUB PUSH2 0x1C2F JUMPI PUSH1 0x40 MLOAD PUSH4 0x3EE5AEB5 PUSH1 0xE0 SHL DUP2 MSTORE PUSH1 0x4 ADD PUSH1 0x40 MLOAD DUP1 SWAP2 SUB SWAP1 REVERT JUMPDEST PUSH1 0x2 PUSH1 0x1 SSTORE JUMP JUMPDEST PUSH1 0x0 DUP1 DUP4 GT PUSH2 0x1C7C JUMPI PUSH1 0x40 MLOAD PUSH3 0x461BCD PUSH1 0xE5 SHL DUP2 MSTORE PUSH1 0x20 PUSH1 0x4 DUP3 ADD MSTORE PUSH1 0x12 PUSH1 0x24 DUP3 ADD MSTORE PUSH18 0x536861726573206D757374206265203E203 PUSH1 0x74 SHL PUSH1 0x44 DUP3 ADD MSTORE PUSH1 0x64 ADD PUSH2 0x688 JUMP JUMPDEST PUSH1 0x0 DUP6 DUP2 MSTORE PUSH1 0x7 PUSH1 0x20 MSTORE PUSH1 0x40 SWAP1 KECCAK256 PUSH1 0x1 DUP6 PUSH1 0x2 DUP2 GT ISZERO PUSH2 0x1C9E JUMPI PUSH2 0x1C9E PUSH2 0x2647 JUMP JUMPDEST SUB PUSH2 0x1DA3 JUMPI PUSH1 0x0 DUP7 DUP2 MSTORE PUSH1 0x8 PUSH1 0x20 SWAP1 DUP2 MSTORE PUSH1 0x40 DUP1 DUP4 KECCAK256 CALLER DUP5 MSTORE SWAP1 SWAP2 MSTORE SWAP1 KECCAK256 SLOAD DUP5 GT ISZERO PUSH2 0x1D0C JUMPI PUSH1 0x40 MLOAD PUSH3 0x461BCD PUSH1 0xE5 SHL DUP2 MSTORE PUSH1 0x20 PUSH1 0x4 DUP3 ADD MSTORE PUSH1 0x17 PUSH1 0x24 DUP3 ADD MSTORE PUSH32 0x496E73756666696369656E742059455320736861726573000000000000000000 PUSH1 0x44 DUP3 ADD MSTORE PUSH1 0x64 ADD PUSH2 0x688 JUMP JUMPDEST PUSH1 0x0 DUP2 PUSH1 0x4 ADD SLOAD DUP3 PUSH1 0x3 ADD SLOAD PUSH2 0x1D22 SWAP2 SWAP1 PUSH2 0x2828 JUMP JUMPDEST SWAP1 POP DUP5 DUP3 PUSH1 0x3 ADD PUSH1 0x0 DUP3 DUP3 SLOAD PUSH2 0x1D38 SWAP2 SWAP1 PUSH2 0x2845 JUMP JUMPDEST SWAP1 SWAP2 SSTORE POP POP PUSH1 0x3 DUP3 ADD SLOAD PUSH1 0x0 SWAP1 PUSH2 0x1D4F SWAP1 DUP4 PUSH2 0x2858 JUMP JUMPDEST SWAP1 POP DUP1 DUP4 PUSH1 0x4 ADD SLOAD PUSH2 0x1D61 SWAP2 SWAP1 PUSH2 0x287A JUMP JUMPDEST PUSH1 0x4 DUP5 ADD DUP3 SWAP1 SSTORE PUSH1 0x0 DUP10 DUP2 MSTORE PUSH1 0x8 PUSH1 0x20 SWAP1 DUP2 MSTORE PUSH1 0x40 DUP1 DUP4 KECCAK256 CALLER DUP5 MSTORE SWAP1 SWAP2 MSTORE DUP2 KECCAK256 DUP1 SLOAD SWAP3 SWAP7 POP DUP9 SWAP3 SWAP1 SWAP2 SWAP1 PUSH2 0x1D96 SWAP1 DUP5 SWAP1 PUSH2 0x287A JUMP JUMPDEST SWAP1 SWAP2 SSTORE POP PUSH2 0x1E97 SWAP3 POP POP POP JUMP JUMPDEST PUSH1 0x0 DUP7 DUP2 MSTORE PUSH1 0x9 PUSH1 0x20 SWAP1 DUP2 MSTORE PUSH1 0x40 DUP1 DUP4 KECCAK256 CALLER DUP5 MSTORE SWAP1 SWAP2 MSTORE SWAP1 KECCAK256 SLOAD DUP5 GT ISZERO PUSH2 0x1E05 JUMPI PUSH1 0x40 MLOAD PUSH3 0x461BCD PUSH1 0xE5 SHL DUP2 MSTORE PUSH1 0x20 PUSH1 0x4 DUP3 ADD MSTORE PUSH1 0x16 PUSH1 0x24 DUP3 ADD MSTORE PUSH22 0x496E73756666696369656E74204E4F20736861726573 PUSH1 0x50 SHL PUSH1 0x44 DUP3 ADD MSTORE PUSH1 0x64 ADD PUSH2 0x688 JUMP JUMPDEST PUSH1 0x0 DUP2 PUSH1 0x4 ADD SLOAD DUP3 PUSH1 0x3 ADD SLOAD PUSH2 0x1E1B SWAP2 SWAP1 PUSH2 0x2828 JUMP JUMPDEST SWAP1 POP DUP5 DUP3 PUSH1 0x4 ADD PUSH1 0x0 DUP3 DUP3 SLOAD PUSH2 0x1E31 SWAP2 SWAP1 PUSH2 0x2845 JUMP JUMPDEST SWAP1 SWAP2 SSTORE POP POP PUSH1 0x3 DUP3 ADD SLOAD PUSH1 0x0 SWAP1 PUSH2 0x1E48 SWAP1 DUP4 PUSH2 0x2858 JUMP JUMPDEST SWAP1 POP DUP1 DUP4 PUSH1 0x3 ADD SLOAD PUSH2 0x1E5A SWAP2 SWAP1 PUSH2 0x287A JUMP JUMPDEST PUSH1 0x3 DUP5 ADD DUP3 SWAP1 SSTORE PUSH1 0x0 DUP10 DUP2 MSTORE PUSH1 0x9 PUSH1 0x20 SWAP1 DUP2 MSTORE PUSH1 0x40 DUP1 DUP4 KECCAK256 CALLER DUP5 MSTORE SWAP1 SWAP2 MSTORE DUP2 KECCAK256 DUP1 SLOAD SWAP3 SWAP7 POP DUP9 SWAP3 SWAP1 SWAP2 SWAP1 PUSH2 0x1E8F SWAP1 DUP5 SWAP1 PUSH2 0x287A JUMP JUMPDEST SWAP1 SWAP2 SSTORE POP POP POP POP JUMPDEST PUSH1 0x0 PUSH2 0x2710 PUSH1 0x3 SLOAD DUP5 PUSH2 0x1EAA SWAP2 SWAP1 PUSH2 0x2828 JUMP JUMPDEST PUSH2 0x1EB4 SWAP2 SWAP1 PUSH2 0x2858 JUMP JUMPDEST SWAP1 POP PUSH1 0x0 PUSH2 0x1EC2 DUP3 DUP6 PUSH2 0x287A JUMP JUMPDEST SWAP1 POP DUP2 PUSH1 0x5 PUSH1 0x0 DUP3 DUP3 SLOAD PUSH2 0x1ED6 SWAP2 SWAP1 PUSH2 0x2845 JUMP JUMPDEST SWAP1 SWAP2 SSTORE POP POP DUP5 DUP2 LT ISZERO PUSH2 0x1F35 JUMPI PUSH1 0x40 MLOAD PUSH3 0x461BCD PUSH1 0xE5 SHL DUP2 MSTORE PUSH1 0x20 PUSH1 0x4 DUP3 ADD MSTORE PUSH1 0x21 PUSH1 0x24 DUP3 ADD MSTORE PUSH32 0x536C6970706167653A20696E73756666696369656E7420636F6C6C6174657261 PUSH1 0x44 DUP3 ADD MSTORE PUSH1 0x1B PUSH1 0xFA SHL PUSH1 0x64 DUP3 ADD MSTORE PUSH1 0x84 ADD PUSH2 0x688 JUMP JUMPDEST PUSH2 0x1F69 PUSH1 0x1 PUSH1 0x1 PUSH1 0xA0 SHL SUB PUSH32 0x0 AND CALLER DUP4 PUSH2 0x1B84 JUMP JUMPDEST DUP4 DUP4 PUSH1 0x5 ADD PUSH1 0x0 DUP3 DUP3 SLOAD PUSH2 0x1F7D SWAP2 SWAP1 PUSH2 0x2845 JUMP JUMPDEST SWAP1 SWAP2 SSTORE POP POP PUSH1 0x40 MLOAD CALLER SWAP1 DUP10 SWAP1 PUSH32 0x33BA5430A0927DA6D229BDBB599116768F98D165ABA758C2505BAE721177092A SWAP1 PUSH2 0x1FBC SWAP1 DUP12 SWAP1 DUP12 SWAP1 DUP8 SWAP1 DUP10 SWAP1 PUSH2 0x2A58 JUMP JUMPDEST PUSH1 0x40 MLOAD DUP1 SWAP2 SUB SWAP1 LOG3 SWAP8 SWAP7 POP POP POP POP POP POP POP JUMP JUMPDEST PUSH2 0x1FD7 PUSH2 0x2423 JUMP JUMPDEST PUSH1 0x2 DUP1 SLOAD PUSH1 0xFF NOT AND SWAP1 SSTORE PUSH32 0x5DB9EE0A495BF2E6FF9C91A7834C1BA4FDD244A5E8AA4E537BD38AEAE4B073AA CALLER JUMPDEST PUSH1 0x40 MLOAD PUSH1 0x1 PUSH1 0x1 PUSH1 0xA0 SHL SUB SWAP1 SWAP2 AND DUP2 MSTORE PUSH1 0x20 ADD PUSH1 0x40 MLOAD DUP1 SWAP2 SUB SWAP1 LOG1 JUMP JUMPDEST PUSH1 0x0 DUP1 SLOAD PUSH1 0x1 PUSH1 0x1 PUSH1 0xA0 SHL SUB DUP4 DUP2 AND PUSH1 0x1 PUSH1 0x1 PUSH1 0xA0 SHL SUB NOT DUP4 AND DUP2 OR DUP5 SSTORE PUSH1 0x40 MLOAD SWAP2 SWAP1 SWAP3 AND SWAP3 DUP4 SWAP2 PUSH32 0x8BE0079C531659141344CD1FD0A4F28419497F9722A3DAAFE3B4186F6B6457E0 SWAP2 SWAP1 LOG3 POP POP JUMP JUMPDEST PUSH1 0x40 MLOAD PUSH1 0x1 PUSH1 0x1 PUSH1 0xA0 SHL SUB DUP5 DUP2 AND PUSH1 0x24 DUP4 ADD MSTORE DUP4 DUP2 AND PUSH1 0x44 DUP4 ADD MSTORE PUSH1 0x64 DUP3 ADD DUP4 SWAP1 MSTORE PUSH2 0x20AA SWAP2 DUP7 SWAP2 DUP3 AND SWAP1 PUSH4 0x23B872DD SWAP1 PUSH1 0x84 ADD PUSH2 0x1BB1 JUMP JUMPDEST POP POP POP POP JUMP JUMPDEST PUSH2 0x20B8 PUSH2 0x1BE8 JUMP JUMPDEST PUSH1 0x2 DUP1 SLOAD PUSH1 0xFF NOT AND PUSH1 0x1 OR SWAP1 SSTORE PUSH32 0x62E78CEA01BEE320CD4E420270B5EA74000D11B0C9F74754EBDBFC544B05A258 PUSH2 0x2004 CALLER SWAP1 JUMP JUMPDEST PUSH1 0x0 DUP1 DUP4 GT PUSH2 0x2133 JUMPI PUSH1 0x40 MLOAD PUSH3 0x461BCD PUSH1 0xE5 SHL DUP2 MSTORE PUSH1 0x20 PUSH1 0x4 DUP3 ADD MSTORE PUSH1 0x12 PUSH1 0x24 DUP3 ADD MSTORE PUSH18 0x416D6F756E74206D757374206265203E203 PUSH1 0x74 SHL PUSH1 0x44 DUP3 ADD MSTORE PUSH1 0x64 ADD PUSH2 0x688 JUMP JUMPDEST PUSH1 0x0 PUSH2 0x2710 PUSH1 0x3 SLOAD DUP6 PUSH2 0x2146 SWAP2 SWAP1 PUSH2 0x2828 JUMP JUMPDEST PUSH2 0x2150 SWAP2 SWAP1 PUSH2 0x2858 JUMP JUMPDEST SWAP1 POP PUSH1 0x0 PUSH2 0x215E DUP3 DUP7 PUSH2 0x287A JUMP JUMPDEST SWAP1 POP PUSH2 0x2195 PUSH1 0x1 PUSH1 0x1 PUSH1 0xA0 SHL SUB PUSH32 0x0 AND CALLER ADDRESS DUP9 PUSH2 0x2071 JUMP JUMPDEST DUP2 PUSH1 0x5 PUSH1 0x0 DUP3 DUP3 SLOAD PUSH2 0x21A7 SWAP2 SWAP1 PUSH2 0x2845 JUMP JUMPDEST SWAP1 SWAP2 SSTORE POP POP PUSH1 0x0 DUP8 DUP2 MSTORE PUSH1 0x7 PUSH1 0x20 MSTORE PUSH1 0x40 SWAP1 KECCAK256 PUSH1 0x1 DUP8 PUSH1 0x2 DUP2 GT ISZERO PUSH2 0x21CE JUMPI PUSH2 0x21CE PUSH2 0x2647 JUMP JUMPDEST SUB PUSH2 0x226A JUMPI PUSH1 0x0 DUP2 PUSH1 0x4 ADD SLOAD DUP3 PUSH1 0x3 ADD SLOAD PUSH2 0x21E9 SWAP2 SWAP1 PUSH2 0x2828 JUMP JUMPDEST SWAP1 POP DUP3 DUP3 PUSH1 0x4 ADD PUSH1 0x0 DUP3 DUP3 SLOAD PUSH2 0x21FF SWAP2 SWAP1 PUSH2 0x2845 JUMP JUMPDEST SWAP1 SWAP2 SSTORE POP POP PUSH1 0x4 DUP3 ADD SLOAD PUSH1 0x0 SWAP1 PUSH2 0x2216 SWAP1 DUP4 PUSH2 0x2858 JUMP JUMPDEST SWAP1 POP DUP1 DUP4 PUSH1 0x3 ADD SLOAD PUSH2 0x2228 SWAP2 SWAP1 PUSH2 0x287A JUMP JUMPDEST PUSH1 0x3 DUP5 ADD DUP3 SWAP1 SSTORE PUSH1 0x0 DUP12 DUP2 MSTORE PUSH1 0x8 PUSH1 0x20 SWAP1 DUP2 MSTORE PUSH1 0x40 DUP1 DUP4 KECCAK256 CALLER DUP5 MSTORE SWAP1 SWAP2 MSTORE DUP2 KECCAK256 DUP1 SLOAD SWAP3 SWAP9 POP DUP9 SWAP3 SWAP1 SWAP2 SWAP1 PUSH2 0x225D SWAP1 DUP5 SWAP1 PUSH2 0x2845 JUMP JUMPDEST SWAP1 SWAP2 SSTORE POP PUSH2 0x22FC SWAP3 POP POP POP JUMP JUMPDEST PUSH1 0x0 DUP2 PUSH1 0x4 ADD SLOAD DUP3 PUSH1 0x3 ADD SLOAD PUSH2 0x2280 SWAP2 SWAP1 PUSH2 0x2828 JUMP JUMPDEST SWAP1 POP DUP3 DUP3 PUSH1 0x3 ADD PUSH1 0x0 DUP3 DUP3 SLOAD PUSH2 0x2296 SWAP2 SWAP1 PUSH2 0x2845 JUMP JUMPDEST SWAP1 SWAP2 SSTORE POP POP PUSH1 0x3 DUP3 ADD SLOAD PUSH1 0x0 SWAP1 PUSH2 0x22AD SWAP1 DUP4 PUSH2 0x2858 JUMP JUMPDEST SWAP1 POP DUP1 DUP4 PUSH1 0x4 ADD SLOAD PUSH2 0x22BF SWAP2 SWAP1 PUSH2 0x287A JUMP JUMPDEST PUSH1 0x4 DUP5 ADD DUP3 SWAP1 SSTORE PUSH1 0x0 DUP12 DUP2 MSTORE PUSH1 0x9 PUSH1 0x20 SWAP1 DUP2 MSTORE PUSH1 0x40 DUP1 DUP4 KECCAK256 CALLER DUP5 MSTORE SWAP1 SWAP2 MSTORE DUP2 KECCAK256 DUP1 SLOAD SWAP3 SWAP9 POP DUP9 SWAP3 SWAP1 SWAP2 SWAP1 PUSH2 0x22F4 SWAP1 DUP5 SWAP1 PUSH2 0x2845 JUMP JUMPDEST SWAP1 SWAP2 SSTORE POP POP POP POP JUMPDEST DUP5 DUP5 LT ISZERO PUSH2 0x234C JUMPI PUSH1 0x40 MLOAD PUSH3 0x461BCD PUSH1 0xE5 SHL DUP2 MSTORE PUSH1 0x20 PUSH1 0x4 DUP3 ADD MSTORE PUSH1 0x1D PUSH1 0x24 DUP3 ADD MSTORE PUSH32 0x536C6970706167653A20696E73756666696369656E7420736861726573000000 PUSH1 0x44 DUP3 ADD MSTORE PUSH1 0x64 ADD PUSH2 0x688 JUMP JUMPDEST DUP6 DUP2 PUSH1 0x5 ADD PUSH1 0x0 DUP3 DUP3 SLOAD PUSH2 0x2360 SWAP2 SWAP1 PUSH2 0x2845 JUMP JUMPDEST SWAP1 SWAP2 SSTORE POP POP PUSH1 0x40 MLOAD CALLER SWAP1 DUP10 SWAP1 PUSH32 0x4CC5C4DE784D8EB588DC24D93CFF39D9266C5C2DAFAC39DA66FE0F560ABBBFED SWAP1 PUSH2 0x239F SWAP1 DUP12 SWAP1 DUP12 SWAP1 DUP11 SWAP1 DUP11 SWAP1 PUSH2 0x2A58 JUMP JUMPDEST PUSH1 0x40 MLOAD DUP1 SWAP2 SUB SWAP1 LOG3 POP POP POP SWAP5 SWAP4 POP POP POP POP JUMP JUMPDEST PUSH1 0x0 DUP1 PUSH1 0x20 PUSH1 0x0 DUP5 MLOAD PUSH1 0x20 DUP7 ADD PUSH1 0x0 DUP9 GAS CALL DUP1 PUSH2 0x23D5 JUMPI PUSH1 0x40 MLOAD RETURNDATASIZE PUSH1 0x0 DUP3 RETURNDATACOPY RETURNDATASIZE DUP2 REVERT JUMPDEST POP POP PUSH1 0x0 MLOAD RETURNDATASIZE SWAP2 POP DUP2 ISZERO PUSH2 0x23ED JUMPI DUP1 PUSH1 0x1 EQ ISZERO PUSH2 0x23FA JUMP JUMPDEST PUSH1 0x1 PUSH1 0x1 PUSH1 0xA0 SHL SUB DUP5 AND EXTCODESIZE ISZERO JUMPDEST ISZERO PUSH2 0x20AA JUMPI PUSH1 0x40 MLOAD PUSH4 0x5274AFE7 PUSH1 0xE0 SHL DUP2 MSTORE PUSH1 0x1 PUSH1 0x1 PUSH1 0xA0 SHL SUB DUP6 AND PUSH1 0x4 DUP3 ADD MSTORE PUSH1 0x24 ADD PUSH2 0x688 JUMP JUMPDEST PUSH1 0x2 SLOAD PUSH1 0xFF AND PUSH2 0x859 JUMPI PUSH1 0x40 MLOAD PUSH4 0x8DFC202B PUSH1 0xE0 SHL DUP2 MSTORE PUSH1 0x4 ADD PUSH1 0x40 MLOAD DUP1 SWAP2 SUB SWAP1 REVERT JUMPDEST DUP1 CALLDATALOAD PUSH1 0x1 PUSH1 0x1 PUSH1 0xA0 SHL SUB DUP2 AND DUP2 EQ PUSH2 0x245D JUMPI PUSH1 0x0 DUP1 REVERT JUMPDEST SWAP2 SWAP1 POP JUMP JUMPDEST PUSH1 0x0 DUP1 PUSH1 0x40 DUP4 DUP6 SUB SLT ISZERO PUSH2 0x2475 JUMPI PUSH1 0x0 DUP1 REVERT JUMPDEST DUP3 CALLDATALOAD SWAP2 POP PUSH2 0x2485 PUSH1 0x20 DUP5 ADD PUSH2 0x2446 JUMP JUMPDEST SWAP1 POP SWAP3 POP SWAP3 SWAP1 POP JUMP JUMPDEST PUSH1 0x0 PUSH1 0x20 DUP3 DUP5 SUB SLT ISZERO PUSH2 0x24A0 JUMPI PUSH1 0x0 DUP1 REVERT JUMPDEST PUSH2 0x1251 DUP3 PUSH2 0x2446 JUMP JUMPDEST PUSH1 0x0 DUP1 PUSH1 0x0 PUSH1 0x60 DUP5 DUP7 SUB SLT ISZERO PUSH2 0x24BE JUMPI PUSH1 0x0 DUP1 REVERT JUMPDEST POP POP DUP2 CALLDATALOAD SWAP4 PUSH1 0x20 DUP4 ADD CALLDATALOAD SWAP4 POP PUSH1 0x40 SWAP1 SWAP3 ADD CALLDATALOAD SWAP2 SWAP1 POP JUMP JUMPDEST PUSH1 0x0 DUP1 PUSH1 0x40 DUP4 DUP6 SUB SLT ISZERO PUSH2 0x24E8 JUMPI PUSH1 0x0 DUP1 REVERT JUMPDEST PUSH2 0x24F1 DUP4 PUSH2 0x2446 JUMP JUMPDEST SWAP2 POP PUSH1 0x20 DUP4 ADD CALLDATALOAD DUP1 ISZERO ISZERO DUP2 EQ PUSH2 0x2506 JUMPI PUSH1 0x0 DUP1 REVERT JUMPDEST DUP1 SWAP2 POP POP SWAP3 POP SWAP3 SWAP1 POP JUMP JUMPDEST DUP1 CALLDATALOAD PUSH1 0x3 DUP2 LT PUSH2 0x245D JUMPI PUSH1 0x0 DUP1 REVERT JUMPDEST PUSH1 0x0 DUP1 PUSH1 0x0 PUSH1 0x60 DUP5 DUP7 SUB SLT ISZERO PUSH2 0x2535 JUMPI PUSH1 0x0 DUP1 REVERT JUMPDEST DUP4 CALLDATALOAD SWAP3 POP PUSH2 0x2545 PUSH1 0x20 DUP6 ADD PUSH2 0x2511 JUMP JUMPDEST SWAP2 POP PUSH1 0x40 DUP5 ADD CALLDATALOAD SWAP1 POP SWAP3 POP SWAP3 POP SWAP3 JUMP JUMPDEST PUSH1 0x0 PUSH1 0x20 DUP3 DUP5 SUB SLT ISZERO PUSH2 0x2567 JUMPI PUSH1 0x0 DUP1 REVERT JUMPDEST POP CALLDATALOAD SWAP2 SWAP1 POP JUMP JUMPDEST PUSH1 0x0 DUP1 PUSH1 0x0 DUP1 PUSH1 0x0 PUSH1 0x80 DUP7 DUP9 SUB SLT ISZERO PUSH2 0x2586 JUMPI PUSH1 0x0 DUP1 REVERT JUMPDEST DUP6 CALLDATALOAD PUSH8 0xFFFFFFFFFFFFFFFF DUP1 DUP3 GT ISZERO PUSH2 0x259E JUMPI PUSH1 0x0 DUP1 REVERT JUMPDEST DUP2 DUP9 ADD SWAP2 POP DUP9 PUSH1 0x1F DUP4 ADD SLT PUSH2 0x25B2 JUMPI PUSH1 0x0 DUP1 REVERT JUMPDEST DUP2 CALLDATALOAD DUP2 DUP2 GT ISZERO PUSH2 0x25C1 JUMPI PUSH1 0x0 DUP1 REVERT JUMPDEST DUP10 PUSH1 0x20 DUP3 DUP6 ADD ADD GT ISZERO PUSH2 0x25D3 JUMPI PUSH1 0x0 DUP1 REVERT JUMPDEST PUSH1 0x20 SWAP3 DUP4 ADD SWAP8 POP SWAP6 POP POP DUP7 ADD CALLDATALOAD SWAP3 POP PUSH1 0x40 DUP7 ADD CALLDATALOAD SWAP2 POP PUSH2 0x25F5 PUSH1 0x60 DUP8 ADD PUSH2 0x2446 JUMP JUMPDEST SWAP1 POP SWAP3 SWAP6 POP SWAP3 SWAP6 SWAP1 SWAP4 POP JUMP JUMPDEST PUSH1 0x0 DUP2 MLOAD DUP1 DUP5 MSTORE PUSH1 0x0 JUMPDEST DUP2 DUP2 LT ISZERO PUSH2 0x2627 JUMPI PUSH1 0x20 DUP2 DUP6 ADD DUP2 ADD MLOAD DUP7 DUP4 ADD DUP3 ADD MSTORE ADD PUSH2 0x260B JUMP JUMPDEST POP PUSH1 0x0 PUSH1 0x20 DUP3 DUP7 ADD ADD MSTORE PUSH1 0x20 PUSH1 0x1F NOT PUSH1 0x1F DUP4 ADD AND DUP6 ADD ADD SWAP2 POP POP SWAP3 SWAP2 POP POP JUMP JUMPDEST PUSH4 0x4E487B71 PUSH1 0xE0 SHL PUSH1 0x0 MSTORE PUSH1 0x21 PUSH1 0x4 MSTORE PUSH1 0x24 PUSH1 0x0 REVERT JUMPDEST PUSH1 0x3 DUP2 LT PUSH2 0xBE1 JUMPI PUSH4 0x4E487B71 PUSH1 0xE0 SHL PUSH1 0x0 MSTORE PUSH1 0x21 PUSH1 0x4 MSTORE PUSH1 0x24 PUSH1 0x0 REVERT JUMPDEST PUSH1 0x0 PUSH2 0x160 DUP14 DUP4 MSTORE DUP1 PUSH1 0x20 DUP5 ADD MSTORE PUSH2 0x2695 DUP2 DUP5 ADD DUP15 PUSH2 0x2601 JUMP JUMPDEST SWAP2 POP POP DUP11 PUSH1 0x40 DUP4 ADD MSTORE DUP10 PUSH1 0x60 DUP4 ADD MSTORE DUP9 PUSH1 0x80 DUP4 ADD MSTORE DUP8 PUSH1 0xA0 DUP4 ADD MSTORE PUSH2 0x26B9 DUP8 PUSH2 0x265D JUMP JUMPDEST DUP7 PUSH1 0xC0 DUP4 ADD MSTORE PUSH2 0x26C8 DUP7 PUSH2 0x265D JUMP JUMPDEST PUSH1 0xE0 DUP3 ADD SWAP6 SWAP1 SWAP6 MSTORE PUSH1 0x1 PUSH1 0x1 PUSH1 0xA0 SHL SUB SWAP4 DUP5 AND PUSH2 0x100 DUP3 ADD MSTORE SWAP2 SWAP1 SWAP3 AND PUSH2 0x120 DUP3 ADD MSTORE PUSH2 0x140 ADD MSTORE SWAP8 SWAP7 POP POP POP POP POP POP POP JUMP JUMPDEST PUSH1 0x0 DUP1 PUSH1 0x40 DUP4 DUP6 SUB SLT ISZERO PUSH2 0x270E JUMPI PUSH1 0x0 DUP1 REVERT JUMPDEST DUP3 CALLDATALOAD SWAP2 POP PUSH2 0x2485 PUSH1 0x20 DUP5 ADD PUSH2 0x2511 JUMP JUMPDEST PUSH1 0x0 PUSH2 0x140 DUP13 DUP4 MSTORE DUP1 PUSH1 0x20 DUP5 ADD MSTORE PUSH2 0x2738 DUP2 DUP5 ADD DUP14 PUSH2 0x2601 JUMP JUMPDEST SWAP2 POP POP DUP10 PUSH1 0x40 DUP4 ADD MSTORE DUP9 PUSH1 0x60 DUP4 ADD MSTORE DUP8 PUSH1 0x80 DUP4 ADD MSTORE DUP7 PUSH1 0xA0 DUP4 ADD MSTORE PUSH2 0x275C DUP7 PUSH2 0x265D JUMP JUMPDEST DUP6 PUSH1 0xC0 DUP4 ADD MSTORE PUSH2 0x276B DUP6 PUSH2 0x265D JUMP JUMPDEST PUSH1 0xE0 DUP3 ADD SWAP5 SWAP1 SWAP5 MSTORE PUSH1 0x1 PUSH1 0x1 PUSH1 0xA0 SHL SUB SWAP3 SWAP1 SWAP3 AND PUSH2 0x100 DUP4 ADD MSTORE PUSH2 0x120 SWAP1 SWAP2 ADD MSTORE SWAP8 SWAP7 POP POP POP POP POP POP POP JUMP JUMPDEST PUSH1 0x20 DUP1 DUP3 MSTORE PUSH1 0xE SWAP1 DUP3 ADD MSTORE PUSH14 0x125B9D985B1A59081B585C9AD95D PUSH1 0x92 SHL PUSH1 0x40 DUP3 ADD MSTORE PUSH1 0x60 ADD SWAP1 JUMP JUMPDEST PUSH1 0x20 DUP1 DUP3 MSTORE PUSH1 0x11 SWAP1 DUP3 ADD MSTORE PUSH17 0x4D61726B6574206E6F7420616374697665 PUSH1 0x78 SHL PUSH1 0x40 DUP3 ADD MSTORE PUSH1 0x60 ADD SWAP1 JUMP JUMPDEST PUSH1 0x20 DUP1 DUP3 MSTORE PUSH1 0xE SWAP1 DUP3 ADD MSTORE PUSH14 0x13585C9AD95D08195E1C1A5C9959 PUSH1 0x92 SHL PUSH1 0x40 DUP3 ADD MSTORE PUSH1 0x60 ADD SWAP1 JUMP JUMPDEST PUSH4 0x4E487B71 PUSH1 0xE0 SHL PUSH1 0x0 MSTORE PUSH1 0x11 PUSH1 0x4 MSTORE PUSH1 0x24 PUSH1 0x0 REVERT JUMPDEST DUP1 DUP3 MUL DUP2 ISZERO DUP3 DUP3 DIV DUP5 EQ OR PUSH2 0x283F JUMPI PUSH2 0x283F PUSH2 0x2812 JUMP JUMPDEST SWAP3 SWAP2 POP POP JUMP JUMPDEST DUP1 DUP3 ADD DUP1 DUP3 GT ISZERO PUSH2 0x283F JUMPI PUSH2 0x283F PUSH2 0x2812 JUMP JUMPDEST PUSH1 0x0 DUP3 PUSH2 0x2875 JUMPI PUSH4 0x4E487B71 PUSH1 0xE0 SHL PUSH1 0x0 MSTORE PUSH1 0x12 PUSH1 0x4 MSTORE PUSH1 0x24 PUSH1 0x0 REVERT JUMPDEST POP DIV SWAP1 JUMP JUMPDEST DUP2 DUP2 SUB DUP2 DUP2 GT ISZERO PUSH2 0x283F JUMPI PUSH2 0x283F PUSH2 0x2812 JUMP JUMPDEST PUSH1 0x0 PUSH1 0x1 DUP3 ADD PUSH2 0x289F JUMPI PUSH2 0x289F PUSH2 0x2812 JUMP JUMPDEST POP PUSH1 0x1 ADD SWAP1 JUMP JUMPDEST PUSH4 0x4E487B71 PUSH1 0xE0 SHL PUSH1 0x0 MSTORE PUSH1 0x41 PUSH1 0x4 MSTORE PUSH1 0x24 PUSH1 0x0 REVERT JUMPDEST PUSH1 0x1 DUP2 DUP2 SHR SWAP1 DUP3 AND DUP1 PUSH2 0x28D0 JUMPI PUSH1 0x7F DUP3 AND SWAP2 POP JUMPDEST PUSH1 0x20 DUP3 LT DUP2 SUB PUSH2 0x28F0 JUMPI PUSH4 0x4E487B71 PUSH1 0xE0 SHL PUSH1 0x0 MSTORE PUSH1 0x22 PUSH1 0x4 MSTORE PUSH1 0x24 PUSH1 0x0 REVERT JUMPDEST POP SWAP2 SWAP1 POP JUMP JUMPDEST PUSH1 0x1F DUP3 GT ISZERO PUSH2 0x1BE3 JUMPI PUSH1 0x0 DUP2 DUP2 MSTORE PUSH1 0x20 DUP2 KECCAK256 PUSH1 0x1F DUP6 ADD PUSH1 0x5 SHR DUP2 ADD PUSH1 0x20 DUP7 LT ISZERO PUSH2 0x291D JUMPI POP DUP1 JUMPDEST PUSH1 0x1F DUP6 ADD PUSH1 0x5 SHR DUP3 ADD SWAP2 POP JUMPDEST DUP2 DUP2 LT ISZERO PUSH2 0x293C JUMPI DUP3 DUP2 SSTORE PUSH1 0x1 ADD PUSH2 0x2929 JUMP JUMPDEST POP POP POP POP POP POP JUMP JUMPDEST PUSH8 0xFFFFFFFFFFFFFFFF DUP4 GT ISZERO PUSH2 0x295C JUMPI PUSH2 0x295C PUSH2 0x28A6 JUMP JUMPDEST PUSH2 0x2970 DUP4 PUSH2 0x296A DUP4 SLOAD PUSH2 0x28BC JUMP JUMPDEST DUP4 PUSH2 0x28F6 JUMP JUMPDEST PUSH1 0x0 PUSH1 0x1F DUP5 GT PUSH1 0x1 DUP2 EQ PUSH2 0x29A4 JUMPI PUSH1 0x0 DUP6 ISZERO PUSH2 0x298C JUMPI POP DUP4 DUP3 ADD CALLDATALOAD JUMPDEST PUSH1 0x0 NOT PUSH1 0x3 DUP8 SWAP1 SHL SHR NOT AND PUSH1 0x1 DUP7 SWAP1 SHL OR DUP4 SSTORE PUSH2 0x29FE JUMP JUMPDEST PUSH1 0x0 DUP4 DUP2 MSTORE PUSH1 0x20 SWAP1 KECCAK256 PUSH1 0x1F NOT DUP7 AND SWAP1 DUP4 JUMPDEST DUP3 DUP2 LT ISZERO PUSH2 0x29D5 JUMPI DUP7 DUP6 ADD CALLDATALOAD DUP3 SSTORE PUSH1 0x20 SWAP5 DUP6 ADD SWAP5 PUSH1 0x1 SWAP1 SWAP3 ADD SWAP2 ADD PUSH2 0x29B5 JUMP JUMPDEST POP DUP7 DUP3 LT ISZERO PUSH2 0x29F2 JUMPI PUSH1 0x0 NOT PUSH1 0xF8 DUP9 PUSH1 0x3 SHL AND SHR NOT DUP5 DUP8 ADD CALLDATALOAD AND DUP2 SSTORE JUMPDEST POP POP PUSH1 0x1 DUP6 PUSH1 0x1 SHL ADD DUP4 SSTORE JUMPDEST POP POP POP POP POP JUMP JUMPDEST PUSH1 0x60 DUP2 MSTORE DUP4 PUSH1 0x60 DUP3 ADD MSTORE DUP4 DUP6 PUSH1 0x80 DUP4 ADD CALLDATACOPY PUSH1 0x0 PUSH1 0x80 DUP6 DUP4 ADD ADD MSTORE PUSH1 0x0 PUSH1 0x80 PUSH1 0x1F NOT PUSH1 0x1F DUP8 ADD AND DUP4 ADD ADD SWAP1 POP DUP4 PUSH1 0x20 DUP4 ADD MSTORE DUP3 PUSH1 0x40 DUP4 ADD MSTORE SWAP6 SWAP5 POP POP POP POP POP JUMP JUMPDEST PUSH1 0x20 DUP2 ADD PUSH2 0x2A52 DUP4 PUSH2 0x265D JUMP JUMPDEST SWAP2 SWAP1 MSTORE SWAP1 JUMP JUMPDEST PUSH1 0x80 DUP2 ADD PUSH2 0x2A65 DUP7 PUSH2 0x265D JUMP JUMPDEST SWAP5 DUP2 MSTORE PUSH1 0x20 DUP2 ADD SWAP4 SWAP1 SWAP4 MSTORE PUSH1 0x40 DUP4 ADD SWAP2 SWAP1 SWAP2 MSTORE PUSH1 0x60 SWAP1 SWAP2 ADD MSTORE SWAP1 JUMP INVALID LOG2 PUSH5 0x6970667358 0x22 SLT KECCAK256 PUSH2 0x9A8F JUMP 0xB0 0xB8 PUSH15 0xC89B2BFEAB945581CECB1581429EA6 0x23 0x24 EXTCODESIZE 0xD9 0x25 0xE4 PUSH7 0xFE4BD64736F6C PUSH4 0x43000814 STOP CALLER "},"methodIdentifiers":{"FEE_DENOMINATOR()":"d73792a9","MIN_LIQUIDITY()":"21b77d63","SCALE()":"eced5526","buyNo(uint256,uint256,uint256)":"ea175894","buyYes(uint256,uint256,uint256)":"fb27260b","cancelMarket(uint256)":"7c16cd9e","claimRefund(uint256)":"5b7baf64","claimWinnings(uint256)":"677bd9ff","claimed(uint256,address)":"120aa877","collateralDecimals()":"ec9c6c30","collateralToken()":"b2016bd4","createMarket(string,uint256,uint256,address)":"8205ebcb","creationFee()":"dce0b4e4","estimateBuy(uint256,uint8,uint256)":"b1fb5e2b","estimateSell(uint256,uint8,uint256)":"4cafa95e","getMarket(uint256)":"eb44fdd3","getNoPrice(uint256)":"c3546485","getPosition(uint256,address)":"d29f541d","getYesPrice(uint256)":"9ba85fae","marketCount()":"ec979082","markets(uint256)":"b1283e77","noShares(uint256,address)":"caec3f78","owner()":"8da5cb5b","pause()":"8456cb59","paused()":"5c975abb","platformBalance()":"62a5dbbc","renounceOwnership()":"715018a6","resolveMarket(uint256,uint8)":"df55406e","resolvers(address)":"b93793e9","sellNo(uint256,uint256,uint256)":"16fe6929","sellYes(uint256,uint256,uint256)":"dffad4e2","setCreationFee(uint256)":"b7d86225","setResolver(address,bool)":"1da6ed7c","setTradingFee(uint256)":"b0d54bcf","tradingFee()":"56f43352","transferOwnership(address)":"f2fde38b","unpause()":"3f4ba83a","withdrawFees(address)":"164e68de","yesShares(uint256,address)":"578efbe9"}}}}}